{
  "address": "0x14C15BD8ba2854750770D38472dc5633152f70aa",
  "abi": [
    {
      "inputs": [
        {
          "internalType": "contract GovernanceToken",
          "name": "_govToken",
          "type": "address"
        },
        {
          "internalType": "address",
          "name": "_devaddr",
          "type": "address"
        },
        {
          "internalType": "address",
          "name": "_liquidityaddr",
          "type": "address"
        },
        {
          "internalType": "address",
          "name": "_comfundaddr",
          "type": "address"
        },
        {
          "internalType": "address",
          "name": "_founderaddr",
          "type": "address"
        },
        {
          "internalType": "uint256",
          "name": "_rewardPerBlock",
          "type": "uint256"
        },
        {
          "internalType": "uint256",
          "name": "_startBlock",
          "type": "uint256"
        },
        {
          "internalType": "uint256",
          "name": "_halvingAfterBlock",
          "type": "uint256"
        },
        {
          "internalType": "uint256",
          "name": "_userDepFee",
          "type": "uint256"
        },
        {
          "internalType": "uint256",
          "name": "_devDepFee",
          "type": "uint256"
        },
        {
          "internalType": "uint256[]",
          "name": "_rewardMultiplier",
          "type": "uint256[]"
        },
        {
          "internalType": "uint256[]",
          "name": "_blockDeltaStartStage",
          "type": "uint256[]"
        },
        {
          "internalType": "uint256[]",
          "name": "_blockDeltaEndStage",
          "type": "uint256[]"
        },
        {
          "internalType": "uint256[]",
          "name": "_userFeeStage",
          "type": "uint256[]"
        },
        {
          "internalType": "uint256[]",
          "name": "_devFeeStage",
          "type": "uint256[]"
        }
      ],
      "stateMutability": "nonpayable",
      "type": "constructor"
    },
    {
      "anonymous": false,
      "inputs": [
        {
          "indexed": true,
          "internalType": "address",
          "name": "user",
          "type": "address"
        },
        {
          "indexed": true,
          "internalType": "uint256",
          "name": "pid",
          "type": "uint256"
        },
        {
          "indexed": false,
          "internalType": "uint256",
          "name": "amount",
          "type": "uint256"
        }
      ],
      "name": "Deposit",
      "type": "event"
    },
    {
      "anonymous": false,
      "inputs": [
        {
          "indexed": true,
          "internalType": "address",
          "name": "user",
          "type": "address"
        },
        {
          "indexed": true,
          "internalType": "uint256",
          "name": "pid",
          "type": "uint256"
        },
        {
          "indexed": false,
          "internalType": "uint256",
          "name": "amount",
          "type": "uint256"
        }
      ],
      "name": "EmergencyWithdraw",
      "type": "event"
    },
    {
      "anonymous": false,
      "inputs": [
        {
          "indexed": true,
          "internalType": "address",
          "name": "previousOwner",
          "type": "address"
        },
        {
          "indexed": true,
          "internalType": "address",
          "name": "newOwner",
          "type": "address"
        }
      ],
      "name": "OwnershipTransferred",
      "type": "event"
    },
    {
      "anonymous": false,
      "inputs": [
        {
          "indexed": true,
          "internalType": "address",
          "name": "user",
          "type": "address"
        },
        {
          "indexed": true,
          "internalType": "uint256",
          "name": "pid",
          "type": "uint256"
        },
        {
          "indexed": false,
          "internalType": "uint256",
          "name": "amount",
          "type": "uint256"
        },
        {
          "indexed": false,
          "internalType": "uint256",
          "name": "lockAmount",
          "type": "uint256"
        }
      ],
      "name": "SendGovernanceTokenReward",
      "type": "event"
    },
    {
      "anonymous": false,
      "inputs": [
        {
          "indexed": true,
          "internalType": "address",
          "name": "user",
          "type": "address"
        },
        {
          "indexed": true,
          "internalType": "uint256",
          "name": "pid",
          "type": "uint256"
        },
        {
          "indexed": false,
          "internalType": "uint256",
          "name": "amount",
          "type": "uint256"
        }
      ],
      "name": "Withdraw",
      "type": "event"
    },
    {
      "inputs": [],
      "name": "FINISH_BONUS_AT_BLOCK",
      "outputs": [
        {
          "internalType": "uint256",
          "name": "",
          "type": "uint256"
        }
      ],
      "stateMutability": "view",
      "type": "function"
    },
    {
      "inputs": [
        {
          "internalType": "uint256",
          "name": "",
          "type": "uint256"
        }
      ],
      "name": "HALVING_AT_BLOCK",
      "outputs": [
        {
          "internalType": "uint256",
          "name": "",
          "type": "uint256"
        }
      ],
      "stateMutability": "view",
      "type": "function"
    },
    {
      "inputs": [],
      "name": "PERCENT_FOR_COM",
      "outputs": [
        {
          "internalType": "uint256",
          "name": "",
          "type": "uint256"
        }
      ],
      "stateMutability": "view",
      "type": "function"
    },
    {
      "inputs": [],
      "name": "PERCENT_FOR_DEV",
      "outputs": [
        {
          "internalType": "uint256",
          "name": "",
          "type": "uint256"
        }
      ],
      "stateMutability": "view",
      "type": "function"
    },
    {
      "inputs": [],
      "name": "PERCENT_FOR_FOUNDERS",
      "outputs": [
        {
          "internalType": "uint256",
          "name": "",
          "type": "uint256"
        }
      ],
      "stateMutability": "view",
      "type": "function"
    },
    {
      "inputs": [],
      "name": "PERCENT_FOR_LP",
      "outputs": [
        {
          "internalType": "uint256",
          "name": "",
          "type": "uint256"
        }
      ],
      "stateMutability": "view",
      "type": "function"
    },
    {
      "inputs": [],
      "name": "PERCENT_LOCK_BONUS_REWARD",
      "outputs": [
        {
          "internalType": "uint256",
          "name": "",
          "type": "uint256"
        }
      ],
      "stateMutability": "view",
      "type": "function"
    },
    {
      "inputs": [
        {
          "internalType": "uint256",
          "name": "",
          "type": "uint256"
        }
      ],
      "name": "REWARD_MULTIPLIER",
      "outputs": [
        {
          "internalType": "uint256",
          "name": "",
          "type": "uint256"
        }
      ],
      "stateMutability": "view",
      "type": "function"
    },
    {
      "inputs": [],
      "name": "REWARD_PER_BLOCK",
      "outputs": [
        {
          "internalType": "uint256",
          "name": "",
          "type": "uint256"
        }
      ],
      "stateMutability": "view",
      "type": "function"
    },
    {
      "inputs": [],
      "name": "START_BLOCK",
      "outputs": [
        {
          "internalType": "uint256",
          "name": "",
          "type": "uint256"
        }
      ],
      "stateMutability": "view",
      "type": "function"
    },
    {
      "inputs": [
        {
          "internalType": "uint256",
          "name": "_allocPoint",
          "type": "uint256"
        },
        {
          "internalType": "contract IERC20",
          "name": "_lpToken",
          "type": "address"
        },
        {
          "internalType": "bool",
          "name": "_withUpdate",
          "type": "bool"
        }
      ],
      "name": "add",
      "outputs": [],
      "stateMutability": "nonpayable",
      "type": "function"
    },
    {
      "inputs": [
        {
          "internalType": "address",
          "name": "_toAdd",
          "type": "address"
        }
      ],
      "name": "addAuthorized",
      "outputs": [],
      "stateMutability": "nonpayable",
      "type": "function"
    },
    {
      "inputs": [
        {
          "internalType": "address",
          "name": "",
          "type": "address"
        }
      ],
      "name": "authorized",
      "outputs": [
        {
          "internalType": "bool",
          "name": "",
          "type": "bool"
        }
      ],
      "stateMutability": "view",
      "type": "function"
    },
    {
      "inputs": [
        {
          "internalType": "uint256",
          "name": "",
          "type": "uint256"
        }
      ],
      "name": "blockDeltaEndStage",
      "outputs": [
        {
          "internalType": "uint256",
          "name": "",
          "type": "uint256"
        }
      ],
      "stateMutability": "view",
      "type": "function"
    },
    {
      "inputs": [
        {
          "internalType": "uint256",
          "name": "",
          "type": "uint256"
        }
      ],
      "name": "blockDeltaStartStage",
      "outputs": [
        {
          "internalType": "uint256",
          "name": "",
          "type": "uint256"
        }
      ],
      "stateMutability": "view",
      "type": "function"
    },
    {
      "inputs": [
        {
          "internalType": "uint256",
          "name": "_newFinish",
          "type": "uint256"
        }
      ],
      "name": "bonusFinishUpdate",
      "outputs": [],
      "stateMutability": "nonpayable",
      "type": "function"
    },
    {
      "inputs": [
        {
          "internalType": "uint256",
          "name": "_pid",
          "type": "uint256"
        }
      ],
      "name": "claimReward",
      "outputs": [],
      "stateMutability": "nonpayable",
      "type": "function"
    },
    {
      "inputs": [
        {
          "internalType": "uint256[]",
          "name": "_pids",
          "type": "uint256[]"
        }
      ],
      "name": "claimRewards",
      "outputs": [],
      "stateMutability": "nonpayable",
      "type": "function"
    },
    {
      "inputs": [
        {
          "internalType": "address",
          "name": "_newCom",
          "type": "address"
        }
      ],
      "name": "comUpdate",
      "outputs": [],
      "stateMutability": "nonpayable",
      "type": "function"
    },
    {
      "inputs": [],
      "name": "comfundaddr",
      "outputs": [
        {
          "internalType": "address",
          "name": "",
          "type": "address"
        }
      ],
      "stateMutability": "view",
      "type": "function"
    },
    {
      "inputs": [
        {
          "internalType": "uint256",
          "name": "_pid",
          "type": "uint256"
        },
        {
          "internalType": "uint256",
          "name": "_amount",
          "type": "uint256"
        },
        {
          "internalType": "address",
          "name": "_ref",
          "type": "address"
        }
      ],
      "name": "deposit",
      "outputs": [],
      "stateMutability": "nonpayable",
      "type": "function"
    },
    {
      "inputs": [
        {
          "internalType": "address",
          "name": "_devaddr",
          "type": "address"
        }
      ],
      "name": "dev",
      "outputs": [],
      "stateMutability": "nonpayable",
      "type": "function"
    },
    {
      "inputs": [],
      "name": "devDepFee",
      "outputs": [
        {
          "internalType": "uint256",
          "name": "",
          "type": "uint256"
        }
      ],
      "stateMutability": "view",
      "type": "function"
    },
    {
      "inputs": [
        {
          "internalType": "uint256",
          "name": "",
          "type": "uint256"
        }
      ],
      "name": "devFeeStage",
      "outputs": [
        {
          "internalType": "uint256",
          "name": "",
          "type": "uint256"
        }
      ],
      "stateMutability": "view",
      "type": "function"
    },
    {
      "inputs": [],
      "name": "devaddr",
      "outputs": [
        {
          "internalType": "address",
          "name": "",
          "type": "address"
        }
      ],
      "stateMutability": "view",
      "type": "function"
    },
    {
      "inputs": [
        {
          "internalType": "uint256",
          "name": "_pid",
          "type": "uint256"
        }
      ],
      "name": "emergencyWithdraw",
      "outputs": [],
      "stateMutability": "nonpayable",
      "type": "function"
    },
    {
      "inputs": [
        {
          "internalType": "address",
          "name": "_newFounder",
          "type": "address"
        }
      ],
      "name": "founderUpdate",
      "outputs": [],
      "stateMutability": "nonpayable",
      "type": "function"
    },
    {
      "inputs": [],
      "name": "founderaddr",
      "outputs": [
        {
          "internalType": "address",
          "name": "",
          "type": "address"
        }
      ],
      "stateMutability": "view",
      "type": "function"
    },
    {
      "inputs": [
        {
          "internalType": "address",
          "name": "_user",
          "type": "address"
        }
      ],
      "name": "getGlobalAmount",
      "outputs": [
        {
          "internalType": "uint256",
          "name": "",
          "type": "uint256"
        }
      ],
      "stateMutability": "view",
      "type": "function"
    },
    {
      "inputs": [
        {
          "internalType": "address",
          "name": "_user",
          "type": "address"
        }
      ],
      "name": "getGlobalRefAmount",
      "outputs": [
        {
          "internalType": "uint256",
          "name": "",
          "type": "uint256"
        }
      ],
      "stateMutability": "view",
      "type": "function"
    },
    {
      "inputs": [
        {
          "internalType": "uint256",
          "name": "_from",
          "type": "uint256"
        },
        {
          "internalType": "uint256",
          "name": "_to",
          "type": "uint256"
        }
      ],
      "name": "getMultiplier",
      "outputs": [
        {
          "internalType": "uint256",
          "name": "",
          "type": "uint256"
        }
      ],
      "stateMutability": "view",
      "type": "function"
    },
    {
      "inputs": [
        {
          "internalType": "uint256",
          "name": "pid1",
          "type": "uint256"
        }
      ],
      "name": "getNewRewardPerBlock",
      "outputs": [
        {
          "internalType": "uint256",
          "name": "",
          "type": "uint256"
        }
      ],
      "stateMutability": "view",
      "type": "function"
    },
    {
      "inputs": [
        {
          "internalType": "uint256",
          "name": "_from",
          "type": "uint256"
        },
        {
          "internalType": "uint256",
          "name": "_to",
          "type": "uint256"
        },
        {
          "internalType": "uint256",
          "name": "_allocPoint",
          "type": "uint256"
        }
      ],
      "name": "getPoolReward",
      "outputs": [
        {
          "internalType": "uint256",
          "name": "forDev",
          "type": "uint256"
        },
        {
          "internalType": "uint256",
          "name": "forFarmer",
          "type": "uint256"
        },
        {
          "internalType": "uint256",
          "name": "forLP",
          "type": "uint256"
        },
        {
          "internalType": "uint256",
          "name": "forCom",
          "type": "uint256"
        },
        {
          "internalType": "uint256",
          "name": "forFounders",
          "type": "uint256"
        }
      ],
      "stateMutability": "view",
      "type": "function"
    },
    {
      "inputs": [
        {
          "internalType": "address",
          "name": "_user",
          "type": "address"
        },
        {
          "internalType": "address",
          "name": "_user2",
          "type": "address"
        }
      ],
      "name": "getRefValueOf",
      "outputs": [
        {
          "internalType": "uint256",
          "name": "",
          "type": "uint256"
        }
      ],
      "stateMutability": "view",
      "type": "function"
    },
    {
      "inputs": [
        {
          "internalType": "address",
          "name": "_user",
          "type": "address"
        }
      ],
      "name": "getTotalRefs",
      "outputs": [
        {
          "internalType": "uint256",
          "name": "",
          "type": "uint256"
        }
      ],
      "stateMutability": "view",
      "type": "function"
    },
    {
      "inputs": [],
      "name": "govToken",
      "outputs": [
        {
          "internalType": "contract GovernanceToken",
          "name": "",
          "type": "address"
        }
      ],
      "stateMutability": "view",
      "type": "function"
    },
    {
      "inputs": [
        {
          "internalType": "uint256[]",
          "name": "_newHalving",
          "type": "uint256[]"
        }
      ],
      "name": "halvingUpdate",
      "outputs": [],
      "stateMutability": "nonpayable",
      "type": "function"
    },
    {
      "inputs": [],
      "name": "liquidityaddr",
      "outputs": [
        {
          "internalType": "address",
          "name": "",
          "type": "address"
        }
      ],
      "stateMutability": "view",
      "type": "function"
    },
    {
      "inputs": [
        {
          "internalType": "uint256",
          "name": "_newlock",
          "type": "uint256"
        }
      ],
      "name": "lockUpdate",
      "outputs": [],
      "stateMutability": "nonpayable",
      "type": "function"
    },
    {
      "inputs": [
        {
          "internalType": "uint256",
          "name": "_newcomlock",
          "type": "uint256"
        }
      ],
      "name": "lockcomUpdate",
      "outputs": [],
      "stateMutability": "nonpayable",
      "type": "function"
    },
    {
      "inputs": [
        {
          "internalType": "uint256",
          "name": "_newdevlock",
          "type": "uint256"
        }
      ],
      "name": "lockdevUpdate",
      "outputs": [],
      "stateMutability": "nonpayable",
      "type": "function"
    },
    {
      "inputs": [
        {
          "internalType": "uint256",
          "name": "_newfounderlock",
          "type": "uint256"
        }
      ],
      "name": "lockfounderUpdate",
      "outputs": [],
      "stateMutability": "nonpayable",
      "type": "function"
    },
    {
      "inputs": [
        {
          "internalType": "uint256",
          "name": "_newlplock",
          "type": "uint256"
        }
      ],
      "name": "locklpUpdate",
      "outputs": [],
      "stateMutability": "nonpayable",
      "type": "function"
    },
    {
      "inputs": [
        {
          "internalType": "address",
          "name": "_newLP",
          "type": "address"
        }
      ],
      "name": "lpUpdate",
      "outputs": [],
      "stateMutability": "nonpayable",
      "type": "function"
    },
    {
      "inputs": [],
      "name": "massUpdatePools",
      "outputs": [],
      "stateMutability": "nonpayable",
      "type": "function"
    },
    {
      "inputs": [],
      "name": "owner",
      "outputs": [
        {
          "internalType": "address",
          "name": "",
          "type": "address"
        }
      ],
      "stateMutability": "view",
      "type": "function"
    },
    {
      "inputs": [
        {
          "internalType": "uint256",
          "name": "_pid",
          "type": "uint256"
        },
        {
          "internalType": "address",
          "name": "_user",
          "type": "address"
        }
      ],
      "name": "pendingReward",
      "outputs": [
        {
          "internalType": "uint256",
          "name": "",
          "type": "uint256"
        }
      ],
      "stateMutability": "view",
      "type": "function"
    },
    {
      "inputs": [
        {
          "internalType": "contract IERC20",
          "name": "",
          "type": "address"
        }
      ],
      "name": "poolExistence",
      "outputs": [
        {
          "internalType": "bool",
          "name": "",
          "type": "bool"
        }
      ],
      "stateMutability": "view",
      "type": "function"
    },
    {
      "inputs": [
        {
          "internalType": "address",
          "name": "",
          "type": "address"
        }
      ],
      "name": "poolId1",
      "outputs": [
        {
          "internalType": "uint256",
          "name": "",
          "type": "uint256"
        }
      ],
      "stateMutability": "view",
      "type": "function"
    },
    {
      "inputs": [
        {
          "internalType": "uint256",
          "name": "",
          "type": "uint256"
        }
      ],
      "name": "poolInfo",
      "outputs": [
        {
          "internalType": "contract IERC20",
          "name": "lpToken",
          "type": "address"
        },
        {
          "internalType": "uint256",
          "name": "allocPoint",
          "type": "uint256"
        },
        {
          "internalType": "uint256",
          "name": "lastRewardBlock",
          "type": "uint256"
        },
        {
          "internalType": "uint256",
          "name": "accGovTokenPerShare",
          "type": "uint256"
        }
      ],
      "stateMutability": "view",
      "type": "function"
    },
    {
      "inputs": [],
      "name": "poolLength",
      "outputs": [
        {
          "internalType": "uint256",
          "name": "",
          "type": "uint256"
        }
      ],
      "stateMutability": "view",
      "type": "function"
    },
    {
      "inputs": [
        {
          "internalType": "address",
          "name": "_newOwner",
          "type": "address"
        }
      ],
      "name": "reclaimTokenOwnership",
      "outputs": [],
      "stateMutability": "nonpayable",
      "type": "function"
    },
    {
      "inputs": [
        {
          "internalType": "address",
          "name": "_toRemove",
          "type": "address"
        }
      ],
      "name": "removeAuthorized",
      "outputs": [],
      "stateMutability": "nonpayable",
      "type": "function"
    },
    {
      "inputs": [],
      "name": "renounceOwnership",
      "outputs": [],
      "stateMutability": "nonpayable",
      "type": "function"
    },
    {
      "inputs": [
        {
          "internalType": "uint256",
          "name": "_pid",
          "type": "uint256"
        },
        {
          "internalType": "address",
          "name": "_user",
          "type": "address"
        },
        {
          "internalType": "uint256",
          "name": "_block",
          "type": "uint256"
        }
      ],
      "name": "reviseDeposit",
      "outputs": [],
      "stateMutability": "nonpayable",
      "type": "function"
    },
    {
      "inputs": [
        {
          "internalType": "uint256",
          "name": "_pid",
          "type": "uint256"
        },
        {
          "internalType": "address",
          "name": "_user",
          "type": "address"
        },
        {
          "internalType": "uint256",
          "name": "_block",
          "type": "uint256"
        }
      ],
      "name": "reviseWithdraw",
      "outputs": [],
      "stateMutability": "nonpayable",
      "type": "function"
    },
    {
      "inputs": [
        {
          "internalType": "uint256[]",
          "name": "_newMulReward",
          "type": "uint256[]"
        }
      ],
      "name": "rewardMulUpdate",
      "outputs": [],
      "stateMutability": "nonpayable",
      "type": "function"
    },
    {
      "inputs": [
        {
          "internalType": "uint256",
          "name": "_newReward",
          "type": "uint256"
        }
      ],
      "name": "rewardUpdate",
      "outputs": [],
      "stateMutability": "nonpayable",
      "type": "function"
    },
    {
      "inputs": [
        {
          "internalType": "uint256",
          "name": "_pid",
          "type": "uint256"
        },
        {
          "internalType": "uint256",
          "name": "_allocPoint",
          "type": "uint256"
        },
        {
          "internalType": "bool",
          "name": "_withUpdate",
          "type": "bool"
        }
      ],
      "name": "set",
      "outputs": [],
      "stateMutability": "nonpayable",
      "type": "function"
    },
    {
      "inputs": [
        {
          "internalType": "uint256",
          "name": "_devDepFees",
          "type": "uint256"
        }
      ],
      "name": "setDevDepFee",
      "outputs": [],
      "stateMutability": "nonpayable",
      "type": "function"
    },
    {
      "inputs": [
        {
          "internalType": "uint256[]",
          "name": "_devFees",
          "type": "uint256[]"
        }
      ],
      "name": "setDevFeeStage",
      "outputs": [],
      "stateMutability": "nonpayable",
      "type": "function"
    },
    {
      "inputs": [
        {
          "internalType": "uint256[]",
          "name": "_blockEnds",
          "type": "uint256[]"
        }
      ],
      "name": "setStageEnds",
      "outputs": [],
      "stateMutability": "nonpayable",
      "type": "function"
    },
    {
      "inputs": [
        {
          "internalType": "uint256[]",
          "name": "_blockStarts",
          "type": "uint256[]"
        }
      ],
      "name": "setStageStarts",
      "outputs": [],
      "stateMutability": "nonpayable",
      "type": "function"
    },
    {
      "inputs": [
        {
          "internalType": "uint256",
          "name": "_usrDepFees",
          "type": "uint256"
        }
      ],
      "name": "setUserDepFee",
      "outputs": [],
      "stateMutability": "nonpayable",
      "type": "function"
    },
    {
      "inputs": [
        {
          "internalType": "uint256[]",
          "name": "_userFees",
          "type": "uint256[]"
        }
      ],
      "name": "setUserFeeStage",
      "outputs": [],
      "stateMutability": "nonpayable",
      "type": "function"
    },
    {
      "inputs": [
        {
          "internalType": "uint256",
          "name": "_newstarblock",
          "type": "uint256"
        }
      ],
      "name": "starblockUpdate",
      "outputs": [],
      "stateMutability": "nonpayable",
      "type": "function"
    },
    {
      "inputs": [],
      "name": "totalAllocPoint",
      "outputs": [
        {
          "internalType": "uint256",
          "name": "",
          "type": "uint256"
        }
      ],
      "stateMutability": "view",
      "type": "function"
    },
    {
      "inputs": [
        {
          "internalType": "address",
          "name": "newOwner",
          "type": "address"
        }
      ],
      "name": "transferOwnership",
      "outputs": [],
      "stateMutability": "nonpayable",
      "type": "function"
    },
    {
      "inputs": [
        {
          "internalType": "uint256",
          "name": "_pid",
          "type": "uint256"
        }
      ],
      "name": "updatePool",
      "outputs": [],
      "stateMutability": "nonpayable",
      "type": "function"
    },
    {
      "inputs": [],
      "name": "usdOracle",
      "outputs": [
        {
          "internalType": "address",
          "name": "",
          "type": "address"
        }
      ],
      "stateMutability": "view",
      "type": "function"
    },
    {
      "inputs": [
        {
          "internalType": "uint256",
          "name": "_pid",
          "type": "uint256"
        }
      ],
      "name": "userDelta",
      "outputs": [
        {
          "internalType": "uint256",
          "name": "",
          "type": "uint256"
        }
      ],
      "stateMutability": "view",
      "type": "function"
    },
    {
      "inputs": [],
      "name": "userDepFee",
      "outputs": [
        {
          "internalType": "uint256",
          "name": "",
          "type": "uint256"
        }
      ],
      "stateMutability": "view",
      "type": "function"
    },
    {
      "inputs": [
        {
          "internalType": "uint256",
          "name": "",
          "type": "uint256"
        }
      ],
      "name": "userFeeStage",
      "outputs": [
        {
          "internalType": "uint256",
          "name": "",
          "type": "uint256"
        }
      ],
      "stateMutability": "view",
      "type": "function"
    },
    {
      "inputs": [
        {
          "internalType": "address",
          "name": "",
          "type": "address"
        }
      ],
      "name": "userGlobalInfo",
      "outputs": [
        {
          "internalType": "uint256",
          "name": "globalAmount",
          "type": "uint256"
        },
        {
          "internalType": "uint256",
          "name": "totalReferals",
          "type": "uint256"
        },
        {
          "internalType": "uint256",
          "name": "globalRefAmount",
          "type": "uint256"
        }
      ],
      "stateMutability": "view",
      "type": "function"
    },
    {
      "inputs": [
        {
          "internalType": "uint256",
          "name": "",
          "type": "uint256"
        },
        {
          "internalType": "address",
          "name": "",
          "type": "address"
        }
      ],
      "name": "userInfo",
      "outputs": [
        {
          "internalType": "uint256",
          "name": "amount",
          "type": "uint256"
        },
        {
          "internalType": "uint256",
          "name": "rewardDebt",
          "type": "uint256"
        },
        {
          "internalType": "uint256",
          "name": "rewardDebtAtBlock",
          "type": "uint256"
        },
        {
          "internalType": "uint256",
          "name": "lastWithdrawBlock",
          "type": "uint256"
        },
        {
          "internalType": "uint256",
          "name": "firstDepositBlock",
          "type": "uint256"
        },
        {
          "internalType": "uint256",
          "name": "blockdelta",
          "type": "uint256"
        },
        {
          "internalType": "uint256",
          "name": "lastDepositBlock",
          "type": "uint256"
        }
      ],
      "stateMutability": "view",
      "type": "function"
    },
    {
      "inputs": [
        {
          "internalType": "uint256",
          "name": "_pid",
          "type": "uint256"
        },
        {
          "internalType": "uint256",
          "name": "_amount",
          "type": "uint256"
        },
        {
          "internalType": "address",
          "name": "_ref",
          "type": "address"
        }
      ],
      "name": "withdraw",
      "outputs": [],
      "stateMutability": "nonpayable",
      "type": "function"
    }
  ],
  "transactionHash": "0x13a203a498f953c962272558bafab184a9d47ea517676114d64a06423fc73c2d",
  "args": [
    "0x47c259DFe165Cef3e429C9B66bf9ce9dc3e68aC2",
    "0x9cecFfA2Ae66b9A520072fC8765269f72bB73Dad",
    "0xABa194665495A8133f23fbf8FB47F25e0caE7aF4",
    "0x4E6E84D9EEa2650F4A4ee1046813C2850Dd53696",
    "0xceD4808382ff41eE6706501eC4449a22dd84ecC8",
    "1000000000000000000",
    2543336,
    100800,
    75,
    9925,
    [
      256,
      128,
      64,
      32,
      32,
      16,
      16,
      8,
      8,
      8,
      8,
      8,
      8,
      8,
      8,
      8,
      8,
      8,
      8,
      8,
      8,
      4,
      4,
      4,
      4,
      4,
      4,
      2,
      2,
      2,
      2,
      2,
      1,
      1,
      1,
      1,
      1,
      1,
      2,
      2,
      2,
      2,
      2,
      4,
      4,
      4,
      8,
      8,
      8,
      8,
      8,
      16,
      16,
      16,
      16,
      16,
      16,
      16,
      16,
      16,
      16,
      8,
      8,
      8,
      8,
      8,
      8,
      4,
      4,
      2,
      2,
      1,
      1,
      1,
      1,
      1,
      1,
      2,
      2,
      4,
      4,
      4,
      4,
      8,
      8,
      8,
      8,
      8,
      16,
      16,
      32,
      32,
      32,
      32,
      16,
      8,
      4,
      2,
      1,
      1,
      1,
      1,
      2,
      2
    ],
    [
      0,
      1,
      275,
      6601,
      19801,
      33001,
      90721,
      181441
    ],
    [
      274,
      6600,
      19800,
      33000,
      90720,
      181440
    ],
    [
      75,
      92,
      96,
      98,
      99,
      995,
      9975,
      9999
    ],
    [
      25,
      8,
      4,
      2,
      1,
      5,
      25,
      1
    ]
  ],
  "solcInputHash": "e58e1e11596eefd456da8008e62e218f",
  "bytecode": "0x60806040526000601e553480156200001657600080fd5b506040516200498b3803806200498b83398181016040526101e08110156200003d57600080fd5b815160208301516040808501516060860151608087015160a088015160c089015160e08a01516101008b01516101208c01516101408d01805199519b9d9a9c989b979a9699959894979396929591948301929184640100000000821115620000a457600080fd5b908301906020820185811115620000ba57600080fd5b8251866020820283011164010000000082111715620000d857600080fd5b82525081516020918201928201910280838360005b8381101562000107578181015183820152602001620000ed565b50505050905001604052602001805160405193929190846401000000008211156200013157600080fd5b9083019060208201858111156200014757600080fd5b82518660208202830111640100000000821117156200016557600080fd5b82525081516020918201928201910280838360005b83811015620001945781810151838201526020016200017a565b5050505090500160405260200180516040519392919084640100000000821115620001be57600080fd5b908301906020820185811115620001d457600080fd5b8251866020820283011164010000000082111715620001f257600080fd5b82525081516020918201928201910280838360005b838110156200022157818101518382015260200162000207565b50505050905001604052602001805160405193929190846401000000008211156200024b57600080fd5b9083019060208201858111156200026157600080fd5b82518660208202830111640100000000821117156200027f57600080fd5b82525081516020918201928201910280838360005b83811015620002ae57818101518382015260200162000294565b5050505090500160405260200180516040519392919084640100000000821115620002d857600080fd5b908301906020820185811115620002ee57600080fd5b82518660208202830111640100000000821117156200030c57600080fd5b82525081516020918201928201910280838360005b838110156200033b57818101518382015260200162000321565b5050505090500160405250505060006200035a6200060860201b60201c565b600080546001600160a01b0319166001600160a01b0383169081178255604051929350917f8be0079c531659141344cd1fd0a4f28419497f9722a3daafe3b4186f6b6457e0908290a35060016002819055508e600360006101000a8154816001600160a01b0302191690836001600160a01b031602179055508d600560006101000a8154816001600160a01b0302191690836001600160a01b031602179055508c600660006101000a8154816001600160a01b0302191690836001600160a01b031602179055508b600760006101000a8154816001600160a01b0302191690836001600160a01b031602179055508a600860006101000a8154816001600160a01b0302191690836001600160a01b031602179055508960098190555088601381905550866011819055508560128190555084600a9080519060200190620004a3929190620006ce565b508351620004b990600c906020870190620006ce565b508251620004cf90600d906020860190620006ce565b508151620004e590600e906020850190620006ce565b508051620004fb90600f906020840190620006ce565b5060005b600a54600019018110156200058f5760006200054c6001620005388d62000538866001018f6200060c60201b620037c71790919060201c565b6200067360201b620038271790919060201c565b600b8054600181810183556000929092527f0175b7a638427703f0dbe7bb9bbf987a2551717b34e79f33b5b1008d1fa01db90191909155919091019050620004ff565b50620005b789620005386001600a80549050038b6200060c60201b620037c71790919060201c565b6010555050600b80546001810182556000919091526000197f0175b7a638427703f0dbe7bb9bbf987a2551717b34e79f33b5b1008d1fa01db99091015550620007359b505050505050505050505050565b3390565b6000826200061d575060006200066d565b828202828482816200062b57fe5b04146200066a5760405162461bcd60e51b81526004018080602001828103825260218152602001806200496a6021913960400191505060405180910390fd5b90505b92915050565b6000828201838110156200066a576040805162461bcd60e51b815260206004820152601b60248201527f536166654d6174683a206164646974696f6e206f766572666c6f770000000000604482015290519081900360640190fd5b8280548282559060005260206000209081019282156200070c579160200282015b828111156200070c578251825591602001919060010190620006ef565b506200071a9291506200071e565b5090565b5b808211156200071a57600081556001016200071f565b61422580620007456000396000f3fe608060405234801561001057600080fd5b50600436106105145760003560e01c8063847bdaa4116102a1578063c6929e531161016b578063d49e77cd116100e3578063ed9bdeda11610097578063f2fde38b1161007c578063f2fde38b1461117c578063f2ffc22c146111a2578063fb075433146111bf57610514565b8063ed9bdeda1461114e578063eda670481461115657610514565b8063dd77b9fd116100c8578063dd77b9fd146110fb578063de98852414611129578063ec12173d1461114657610514565b8063d49e77cd146110af578063d9608d8a146110b757610514565b8063cb0b8ca11161013a578063ce2529c91161011f578063ce2529c914611046578063cf1c316a1461106c578063d007db291461109257610514565b8063cb0b8ca114611003578063cbd258b51461102057610514565b8063c6929e5314610f79578063c749d61414610f81578063c8a4271f14610fa7578063c8ed768014610faf57610514565b8063975532dc11610219578063b6066962116101cd578063beff2a53116101b2578063beff2a5314610f37578063c56a10ff14610f54578063c663baa614610f5c57610514565b8063b606696214610ee0578063b918161114610efd57610514565b806398969e82116101fe57806398969e8214610e8f578063a02306f914610ebb578063ae169a5014610ec357610514565b8063975532dc14610e7f578063980c2a9814610e8757610514565b80638dbb1e3a11610270578063929c697111610255578063929c697114610ded57806393f1a40b14610e1357806395fdf25814610e7757610514565b80638dbb1e3a14610d985780638dbdbe6d14610dbb57610514565b8063847bdaa414610c245780638cc883ce14610cc75780638d88a90e14610d6a5780638da5cb5b14610d9057610514565b80633c9d9267116103e25780635c5e490b1161035a57806364482f791161030e5780637c39c9c9116102f35780637c39c9c914610bcd57806382386d5814610bea57806382796e9814610c1c57610514565b806364482f7914610b9a578063715018a614610bc557610514565b80636066debd1161033f5780636066debd14610b435780636245f08414610b75578063630b5ba114610b9257610514565b80635c5e490b14610a7a5780635eac623914610aa057610514565b8063485d7d94116103b15780634dbf85ca116103965780634dbf85ca14610a1a57806351eb05a614610a405780635312ea8e14610a5d57610514565b8063485d7d94146109515780634af0e3e11461097757610514565b80633c9d92671461086c5780633d479cd5146108745780634179b4fb1461089157806346664064146108ae57610514565b80631eaaa045116104905780632fda773511610444578063354affb711610429578063354affb71461079b57806336ebcde61461083e57806339b3e8261461086457610514565b80632fda77351461075857806330fb8e0e1461077557610514565b8063245b211d11610475578063245b211d1461067b57806324b95c3e146106985780632a7b0107146106b557610514565b80631eaaa0451461063f57806322a376b01461067357610514565b80630a67d518116104e75780631526fe27116104cc5780631526fe27146105cd57806317caf6f11461061a5780631d465c821461062257610514565b80630a67d518146105935780630ad58d2f1461059b57610514565b806301b689c01461051957806305268cff14610538578063081e3eda1461055c57806309ae4d2c14610576575b600080fd5b6105366004803603602081101561052f57600080fd5b50356111dc565b005b610540611217565b604080516001600160a01b039092168252519081900360200190f35b610564611226565b60408051918252519081900360200190f35b6105646004803603602081101561058c57600080fd5b503561122c565b61056461126a565b610536600480360360608110156105b157600080fd5b50803590602081013590604001356001600160a01b0316611270565b6105ea600480360360208110156105e357600080fd5b50356118e2565b604080516001600160a01b0390951685526020850193909352838301919091526060830152519081900360800190f35b610564611923565b6105646004803603602081101561063857600080fd5b5035611929565b6105366004803603606081101561065557600080fd5b508035906001600160a01b036020820135169060400135151561199c565b610540611c0b565b6105366004803603602081101561069157600080fd5b5035611c1a565b610536600480360360208110156106ae57600080fd5b5035611c55565b610536600480360360208110156106cb57600080fd5b8101906020810181356401000000008111156106e657600080fd5b8201836020820111156106f857600080fd5b8035906020019184602083028401116401000000008311171561071a57600080fd5b919080806020026020016040519081016040528093929190818152602001838360200280828437600092019190915250929550611c90945050505050565b6105646004803603602081101561076e57600080fd5b5035611cdd565b6105366004803603602081101561078b57600080fd5b50356001600160a01b0316611cfb565b610536600480360360208110156107b157600080fd5b8101906020810181356401000000008111156107cc57600080fd5b8201836020820111156107de57600080fd5b8035906020019184602083028401116401000000008311171561080057600080fd5b919080806020026020016040519081016040528093929190818152602001838360200280828437600092019190915250929550611d60945050505050565b6105646004803603602081101561085457600080fd5b50356001600160a01b0316611da9565b610564611df6565b610540611dfc565b6105366004803603602081101561088a57600080fd5b5035611e0b565b610564600480360360208110156108a757600080fd5b5035611e46565b610536600480360360208110156108c457600080fd5b8101906020810181356401000000008111156108df57600080fd5b8201836020820111156108f157600080fd5b8035906020019184602083028401116401000000008311171561091357600080fd5b919080806020026020016040519081016040528093929190818152602001838360200280828437600092019190915250929550611e53945050505050565b6105366004803603602081101561096757600080fd5b50356001600160a01b0316611e9c565b6105366004803603602081101561098d57600080fd5b8101906020810181356401000000008111156109a857600080fd5b8201836020820111156109ba57600080fd5b803590602001918460208302840111640100000000831117156109dc57600080fd5b919080806020026020016040519081016040528093929190818152602001838360200280828437600092019190915250929550611f3d945050505050565b61053660048036036020811015610a3057600080fd5b50356001600160a01b0316611f86565b61053660048036036020811015610a5657600080fd5b5035611feb565b61053660048036036020811015610a7357600080fd5b5035612593565b61056460048036036020811015610a9057600080fd5b50356001600160a01b03166126e2565b61053660048036036020811015610ab657600080fd5b810190602081018135640100000000811115610ad157600080fd5b820183602082011115610ae357600080fd5b80359060200191846020830284011164010000000083111715610b0557600080fd5b91908080602002602001604051908101604052809392919081815260200183836020028082843760009201919091525092955061272d945050505050565b61053660048036036060811015610b5957600080fd5b508035906001600160a01b03602082013516906040013561275d565b61056460048036036020811015610b8b57600080fd5b50356127bc565b6105366127c9565b61053660048036036060811015610bb057600080fd5b508035906020810135906040013515156127e8565b6105366128cb565b61053660048036036020811015610be357600080fd5b503561298c565b61053660048036036060811015610c0057600080fd5b508035906001600160a01b0360208201351690604001356129c7565b610564612a26565b61053660048036036020811015610c3a57600080fd5b810190602081018135640100000000811115610c5557600080fd5b820183602082011115610c6757600080fd5b80359060200191846020830284011164010000000083111715610c8957600080fd5b919080806020026020016040519081016040528093929190818152602001838360200280828437600092019190915250929550612a2c945050505050565b61053660048036036020811015610cdd57600080fd5b810190602081018135640100000000811115610cf857600080fd5b820183602082011115610d0a57600080fd5b80359060200191846020830284011164010000000083111715610d2c57600080fd5b919080806020026020016040519081016040528093929190818152602001838360200280828437600092019190915250929550612a75945050505050565b61053660048036036020811015610d8057600080fd5b50356001600160a01b0316612abe565b610540612b23565b61056460048036036040811015610dae57600080fd5b5080359060200135612b32565b61053660048036036060811015610dd157600080fd5b50803590602081013590604001356001600160a01b0316612c2e565b61056460048036036020811015610e0357600080fd5b50356001600160a01b0316612ee8565b610e3f60048036036040811015610e2957600080fd5b50803590602001356001600160a01b0316612f37565b604080519788526020880196909652868601949094526060860192909252608085015260a084015260c0830152519081900360e00190f35b610564612f86565b610564612f8c565b610564612f92565b61056460048036036040811015610ea557600080fd5b50803590602001356001600160a01b0316612f98565b6105646130e6565b61053660048036036020811015610ed957600080fd5b50356130ec565b61053660048036036020811015610ef657600080fd5b50356130fe565b610f2360048036036020811015610f1357600080fd5b50356001600160a01b0316613139565b604080519115158252519081900360200190f35b61056460048036036020811015610f4d57600080fd5b503561314e565b61056461315b565b61053660048036036020811015610f7257600080fd5b5035613161565b61056461319c565b61053660048036036020811015610f9757600080fd5b50356001600160a01b03166131a2565b610540613207565b610fd860048036036060811015610fc557600080fd5b5080359060208101359060400135613216565b6040805195865260208601949094528484019290925260608401526080830152519081900360a00190f35b6105646004803603602081101561101957600080fd5b5035613401565b610f236004803603602081101561103657600080fd5b50356001600160a01b031661340e565b6105646004803603602081101561105c57600080fd5b50356001600160a01b0316613423565b6105366004803603602081101561108257600080fd5b50356001600160a01b0316613435565b610564600480360360208110156110a857600080fd5b50356134c6565b6105406134d3565b6110dd600480360360208110156110cd57600080fd5b50356001600160a01b03166134e2565b60408051938452602084019290925282820152519081900360600190f35b6105646004803603604081101561111157600080fd5b506001600160a01b0381358116916020013516613503565b6105366004803603602081101561113f57600080fd5b5035613532565b61054061356d565b61056461357c565b6105366004803603602081101561116c57600080fd5b50356001600160a01b0316613582565b6105366004803603602081101561119257600080fd5b50356001600160a01b031661363a565b610536600480360360208110156111b857600080fd5b5035613751565b610536600480360360208110156111d557600080fd5b503561378c565b3360009081526001602052604090205460ff16806112095750336111fe612b23565b6001600160a01b0316145b61121257600080fd5b601455565b6003546001600160a01b031681565b60195490565b6000818152601b60209081526040808320338452909152812060038101541561125c576003015443039050611265565b60040154430390505b919050565b60165481565b6002805414156112c7576040805162461bcd60e51b815260206004820152601f60248201527f5265656e7472616e637947756172643a207265656e7472616e742063616c6c00604482015290519081900360640190fd5b600280819055506000601984815481106112dd57fe5b60009182526020808320878452601b82526040808520338087529084528186206001600160a01b0389168752601c90945281862090865294208254600490940290910194509092918611156113635760405162461bcd60e51b81526004018080602001828103825260218152602001806141276021913960400191505060405180910390fd5b6001600160a01b038516156113965733600090815260018301602052604090208054879003905560038201805487900390555b805486900381556113a687611feb565b6113af87613881565b85156118d45782546113c19087613b38565b83556003830154156113de576003830154430360058401556113eb565b6004830154430360058401555b600c6000815481106113f957fe5b9060005260206000200154836005015414806114185750826006015443145b1561149757611469336114576064611451600e60008154811061143757fe5b90600052602060002001548b6137c790919063ffffffff16565b90613b7a565b86546001600160a01b03169190613bbc565b600554600f8054611492926001600160a01b031691611457916064916114519160009061143757fe5b611876565b600c6001815481106114a557fe5b90600052602060002001548360050154101580156114df5750600d6000815481106114cc57fe5b9060005260206000200154836005015411155b15611529576114fe336114576064611451600e60018154811061143757fe5b600554600f8054611492926001600160a01b0316916114579160649161145191600190811061143757fe5b600c60028154811061153757fe5b90600052602060002001548360050154101580156115715750600d60018154811061155e57fe5b9060005260206000200154836005015411155b156115bb57611590336114576064611451600e60028154811061143757fe5b600554600f8054611492926001600160a01b0316916114579160649161145191600290811061143757fe5b600c6003815481106115c957fe5b90600052602060002001548360050154101580156116035750600d6002815481106115f057fe5b9060005260206000200154836005015411155b1561164d57611622336114576064611451600e60038154811061143757fe5b600554600f8054611492926001600160a01b0316916114579160649161145191600390811061143757fe5b600c60048154811061165b57fe5b90600052602060002001548360050154101580156116955750600d60038154811061168257fe5b9060005260206000200154836005015411155b156116df576116b4336114576064611451600e60048154811061143757fe5b600554600f8054611492926001600160a01b0316916114579160649161145191600490811061143757fe5b600c6005815481106116ed57fe5b90600052602060002001548360050154101580156117275750600d60048154811061171457fe5b9060005260206000200154836005015411155b1561177757611747336114576103e8611451600e60058154811061143757fe5b611492600560009054906101000a90046001600160a01b03166114576103e8611451600f60058154811061143757fe5b600c60068154811061178557fe5b90600052602060002001548360050154101580156117bf5750600d6005815481106117ac57fe5b9060005260206000200154836005015411155b1561180b576117df33611457612710611451600e60068154811061143757fe5b600554600f8054611492926001600160a01b031691611457916127109161145191600690811061143757fe5b600c60078154811061181957fe5b9060005260206000200154836005015411156118765761184a33611457612710611451600e60078154811061143757fe5b600554600f8054611876926001600160a01b031691611457916127109161145191600790811061143757fe5b600384015483546118919164e8d4a5100091611451916137c7565b6001840155604080518781529051889133917ff279e6a1f5e320cca91135676d9cb6e44ca8a08c0b88342bcdb1144f6511b5689181900360200190a34360038401555b505060016002555050505050565b601981815481106118ef57fe5b600091825260209091206004909102018054600182015460028301546003909301546001600160a01b039092169350919084565b601e5481565b6000806119396001430343612b32565b9050826119565760095461194e9082906137c7565b915050611265565b61194e601e546114516019600187038154811061196f57fe5b906000526020600020906004020160010154611996600954866137c790919063ffffffff16565b906137c7565b6119a4613c3c565b6000546001600160a01b03908116911614611a06576040805162461bcd60e51b815260206004820181905260248201527f4f776e61626c653a2063616c6c6572206973206e6f7420746865206f776e6572604482015290519081900360640190fd5b6001600160a01b0382166000908152601d6020526040902054829060ff1615611a605760405162461bcd60e51b81526004018080602001828103825260288152602001806141696028913960400191505060405180910390fd5b6001600160a01b0383166000908152601a602052604090205415611ab55760405162461bcd60e51b81526004018080602001828103825260298152602001806140fe6029913960400191505060405180910390fd5b8115611ac357611ac36127c9565b60006013544311611ad657601354611ad8565b435b601e54909150611ae89086613827565b601e55601980546001600160a01b039586166000818152601a6020908152604080832060019586019055601d8252808320805460ff1916861790558051608081018252938452908301998a5282019485526060820181815284549384018555939052517f944998273e477b495144fb8794c914197f3ccb46be2900f4698fd0ef743c96956004909202918201805473ffffffffffffffffffffffffffffffffffffffff1916919097161790955594517f944998273e477b495144fb8794c914197f3ccb46be2900f4698fd0ef743c9696850155517f944998273e477b495144fb8794c914197f3ccb46be2900f4698fd0ef743c9697840155505090517f944998273e477b495144fb8794c914197f3ccb46be2900f4698fd0ef743c969890910155565b6006546001600160a01b031681565b3360009081526001602052604090205460ff1680611c47575033611c3c612b23565b6001600160a01b0316145b611c5057600080fd5b601055565b3360009081526001602052604090205460ff1680611c82575033611c77612b23565b6001600160a01b0316145b611c8b57600080fd5b601355565b3360009081526001602052604090205460ff1680611cbd575033611cb2612b23565b6001600160a01b0316145b611cc657600080fd5b8051611cd990600e906020840190614056565b5050565b600a8181548110611cea57fe5b600091825260209091200154905081565b3360009081526001602052604090205460ff1680611d28575033611d1d612b23565b6001600160a01b0316145b611d3157600080fd5b6008805473ffffffffffffffffffffffffffffffffffffffff19166001600160a01b0392909216919091179055565b3360009081526001602052604090205460ff1680611d8d575033611d82612b23565b6001600160a01b0316145b611d9657600080fd5b8051611cd990600b906020840190614056565b6000611db36140a1565b50506001600160a01b03166000908152601c6020908152604091829020825160608101845281548152600282015492810183905260039091015492019190915290565b60135481565b6007546001600160a01b031681565b3360009081526001602052604090205460ff1680611e38575033611e2d612b23565b6001600160a01b0316145b611e4157600080fd5b600955565b600b8181548110611cea57fe5b3360009081526001602052604090205460ff1680611e80575033611e75612b23565b6001600160a01b0316145b611e8957600080fd5b8051611cd990600a906020840190614056565b611ea4613c3c565b6000546001600160a01b03908116911614611f06576040805162461bcd60e51b815260206004820181905260248201527f4f776e61626c653a2063616c6c6572206973206e6f7420746865206f776e6572604482015290519081900360640190fd5b6001600160a01b038116331415611f1c57600080fd5b6001600160a01b03166000908152600160205260409020805460ff19169055565b3360009081526001602052604090205460ff1680611f6a575033611f5f612b23565b6001600160a01b0316145b611f7357600080fd5b8051611cd990600d906020840190614056565b3360009081526001602052604090205460ff1680611fb3575033611fa8612b23565b6001600160a01b0316145b611fbc57600080fd5b6006805473ffffffffffffffffffffffffffffffffffffffff19166001600160a01b0392909216919091179055565b600060198281548110611ffa57fe5b906000526020600020906004020190508060020154431161201b5750612590565b8054604080516370a0823160e01b815230600482015290516000926001600160a01b0316916370a08231916024808301926020929190829003018186803b15801561206557600080fd5b505afa158015612079573d6000803e3d6000fd5b505050506040513d602081101561208f57600080fd5b50519050806120a5575043600290910155612590565b60008060008060006120c08760020154438960010154613216565b600354604080516340c10f1960e01b8152306004820152602481018790529051969b5094995092975090955093506001600160a01b0316916340c10f199160448082019260009290919082900301818387803b15801561211f57600080fd5b505af1158015612133573d6000803e3d6000fd5b505050506121616121568761145164e8d4a51000886137c790919063ffffffff16565b600389015490613827565b6003880155436002880155841561227357600354600554604080516340c10f1960e01b81526001600160a01b03928316600482015260248101899052905191909216916340c10f1991604480830192600092919082900301818387803b1580156121ca57600080fd5b505af11580156121de573d6000803e3d6000fd5b505050506010544311612273576003546005546001600160a01b039182169163282d3fdf911661221460646114518a604b6137c7565b6040518363ffffffff1660e01b815260040180836001600160a01b0316815260200182815260200192505050600060405180830381600087803b15801561225a57600080fd5b505af115801561226e573d6000803e3d6000fd5b505050505b821561237a57600354600654604080516340c10f1960e01b81526001600160a01b03928316600482015260248101879052905191909216916340c10f1991604480830192600092919082900301818387803b1580156122d157600080fd5b505af11580156122e5573d6000803e3d6000fd5b50505050601054431161237a576003546006546001600160a01b039182169163282d3fdf911661231b606461145188602d6137c7565b6040518363ffffffff1660e01b815260040180836001600160a01b0316815260200182815260200192505050600060405180830381600087803b15801561236157600080fd5b505af1158015612375573d6000803e3d6000fd5b505050505b811561248157600354600754604080516340c10f1960e01b81526001600160a01b03928316600482015260248101869052905191909216916340c10f1991604480830192600092919082900301818387803b1580156123d857600080fd5b505af11580156123ec573d6000803e3d6000fd5b505050506010544311612481576003546007546001600160a01b039182169163282d3fdf911661242260646114518760556137c7565b6040518363ffffffff1660e01b815260040180836001600160a01b0316815260200182815260200192505050600060405180830381600087803b15801561246857600080fd5b505af115801561247c573d6000803e3d6000fd5b505050505b801561258857600354600854604080516340c10f1960e01b81526001600160a01b03928316600482015260248101859052905191909216916340c10f1991604480830192600092919082900301818387803b1580156124df57600080fd5b505af11580156124f3573d6000803e3d6000fd5b505050506010544311612588576003546008546001600160a01b039182169163282d3fdf9116612529606461145186605f6137c7565b6040518363ffffffff1660e01b815260040180836001600160a01b0316815260200182815260200192505050600060405180830381600087803b15801561256f57600080fd5b505af1158015612583573d6000803e3d6000fd5b505050505b505050505050505b50565b6002805414156125ea576040805162461bcd60e51b815260206004820152601f60248201527f5265656e7472616e637947756172643a207265656e7472616e742063616c6c00604482015290519081900360640190fd5b6002808190555060006019828154811061260057fe5b60009182526020808320858452601b82526040808520338652909252908320805460049093029091019350919061263f9060649061145190604b6137c7565b905060006126606064611451601986600001546137c790919063ffffffff16565b600080855560018501558454909150612683906001600160a01b03163384613bbc565b600554845461269f916001600160a01b03918216911683613bbc565b604080518381529051869133917fbb757047c2b5f3974fe26b7c10f732e7bce710b0952a71082702781e62ae05959181900360200190a350506001600255505050565b60006126ec6140a1565b50506001600160a01b03166000908152601c602090815260409182902082516060810184528154815260028201549281019290925260030154910181905290565b60005b8151811015611cd95761275582828151811061274857fe5b60200260200101516130ec565b600101612730565b3360009081526001602052604090205460ff168061278a57503361277f612b23565b6001600160a01b0316145b61279357600080fd5b6000928352601b602090815260408085206001600160a01b039094168552929052912060030155565b600c8181548110611cea57fe5b60195460005b81811015611cd9576127e081611feb565b6001016127cf565b6127f0613c3c565b6000546001600160a01b03908116911614612852576040805162461bcd60e51b815260206004820181905260248201527f4f776e61626c653a2063616c6c6572206973206e6f7420746865206f776e6572604482015290519081900360640190fd5b8015612860576128606127c9565b61289d826128976019868154811061287457fe5b906000526020600020906004020160010154601e54613b3890919063ffffffff16565b90613827565b601e8190555081601984815481106128b157fe5b906000526020600020906004020160010181905550505050565b6128d3613c3c565b6000546001600160a01b03908116911614612935576040805162461bcd60e51b815260206004820181905260248201527f4f776e61626c653a2063616c6c6572206973206e6f7420746865206f776e6572604482015290519081900360640190fd5b600080546040516001600160a01b03909116907f8be0079c531659141344cd1fd0a4f28419497f9722a3daafe3b4186f6b6457e0908390a36000805473ffffffffffffffffffffffffffffffffffffffff19169055565b3360009081526001602052604090205460ff16806129b95750336129ae612b23565b6001600160a01b0316145b6129c257600080fd5b601155565b3360009081526001602052604090205460ff16806129f45750336129e9612b23565b6001600160a01b0316145b6129fd57600080fd5b6000928352601b602090815260408085206001600160a01b039094168552929052912060040155565b60115481565b3360009081526001602052604090205460ff1680612a59575033612a4e612b23565b6001600160a01b0316145b612a6257600080fd5b8051611cd990600c906020840190614056565b3360009081526001602052604090205460ff1680612aa2575033612a97612b23565b6001600160a01b0316145b612aab57600080fd5b8051611cd990600f906020840190614056565b3360009081526001602052604090205460ff1680612aeb575033612ae0612b23565b6001600160a01b0316145b612af457600080fd5b6005805473ffffffffffffffffffffffffffffffffffffffff19166001600160a01b0392909216919091179055565b6000546001600160a01b031690565b6013546000908190841015612b4b576000915050612c28565b60005b600b54811015612c24576000600b8281548110612b6757fe5b906000526020600020015490506001600a8054905003821115612b905760009350505050612c28565b808511612bd6576000612bbf600a8481548110612ba957fe5b600091825260209091200154611996888a613b38565b9050612bcb8482613827565b945050505050612c28565b80861015612c1b576000612c06600a8481548110612bf057fe5b600091825260209091200154611996848a613b38565b91965086919050612c178482613827565b9350505b50600101612b4e565b5090505b92915050565b600280541415612c85576040805162461bcd60e51b815260206004820152601f60248201527f5265656e7472616e637947756172643a207265656e7472616e742063616c6c00604482015290519081900360640190fd5b6002805581612cc55760405162461bcd60e51b81526004018080602001828103825260358152602001806141916035913960400191505060405180910390fd5b600060198481548110612cd457fe5b60009182526020808320878452601b82526040808520338087529084528186206005546001600160a01b039081168852838820908a168852601c865283882092885283882060018401909652929096205460049590950290920195509290919015612d5f57336000908152600183016020526040902080548801905560038201805488019055612d8e565b336000908152600180840160205260409091208054890190556002830180549091019055600382018054880190555b612da860646114516011548a6137c790919063ffffffff16565b8154018155612db688611feb565b612dbf88613881565b8454612dd6906001600160a01b031633308a613c40565b8354612de3574360028501555b612e13612e0b612e046127106114516011548c6137c790919063ffffffff16565b8990613b38565b855490613827565b8085556003860154612e309164e8d4a510009161145191906137c7565b8460010181905550612e61612e59612e046127106114516012548c6137c790919063ffffffff16565b845490613827565b8084556003860154612e7e9164e8d4a510009161145191906137c7565b6001840155604080518881529051899133917f90890809c654f11d6e72a28fa60149770a0d11ec6c92319d6ceb2bb0a4ea1a159181900360200190a3600484015415612ec957612ed0565b4360048501555b50504360069092019190915550506001600255505050565b6000612ef26140a1565b50506001600160a01b03166000908152601c60209081526040918290208251606081018452815480825260028301549382019390935260039091015492019190915290565b601b602052816000526040600020602052806000526040600020600091509150508060000154908060010154908060020154908060030154908060040154908060050154908060060154905087565b60145481565b60095481565b60105481565b60008060198481548110612fa857fe5b60009182526020808320878452601b825260408085206001600160a01b03898116875290845281862060049586029093016003810154815484516370a0823160e01b81523098810198909852935191985093969395939492909116926370a08231926024808301939192829003018186803b15801561302657600080fd5b505afa15801561303a573d6000803e3d6000fd5b505050506040513d602081101561305057600080fd5b50516002850154909150431180156130685750600081115b156130ad5760006130828560020154438760010154613216565b509193506130a992506130a291508490506114518464e8d4a510006137c7565b8490613827565b9250505b6130db83600101546130d564e8d4a510006114518688600001546137c790919063ffffffff16565b90613b38565b979650505050505050565b60175481565b6130f581611feb565b61259081613881565b3360009081526001602052604090205460ff168061312b575033613120612b23565b6001600160a01b0316145b61313457600080fd5b601555565b60016020526000908152604090205460ff1681565b600f8181548110611cea57fe5b60125481565b3360009081526001602052604090205460ff168061318e575033613183612b23565b6001600160a01b0316145b61319757600080fd5b601755565b60185481565b3360009081526001602052604090205460ff16806131cf5750336131c4612b23565b6001600160a01b0316145b6131d857600080fd5b6007805473ffffffffffffffffffffffffffffffffffffffff19166001600160a01b0392909216919091179055565b6004546001600160a01b031681565b6000806000806000806132298989612b32565b9050600061324c601e546114518a611996600954876137c790919063ffffffff16565b9050600061335d600360009054906101000a90046001600160a01b03166001600160a01b03166318160ddd6040518163ffffffff1660e01b815260040160206040518083038186803b1580156132a157600080fd5b505afa1580156132b5573d6000803e3d6000fd5b505050506040513d60208110156132cb57600080fd5b5051600354604080517f355274ea00000000000000000000000000000000000000000000000000000000815290516001600160a01b039092169163355274ea91600480820192602092909190829003018186803b15801561332b57600080fd5b505afa15801561333f573d6000803e3d6000fd5b505050506040513d602081101561335557600080fd5b505190613b38565b90508181101561337f57600097508096506000955060009450600093506133f3565b6133996064611451601554856137c790919063ffffffff16565b97508196506133b86064611451601654856137c790919063ffffffff16565b95506133d46064611451601754856137c790919063ffffffff16565b94506133f06064611451601854856137c790919063ffffffff16565b93505b505050939792965093509350565b600d8181548110611cea57fe5b601d6020526000908152604090205460ff1681565b601a6020526000908152604090205481565b61343d613c3c565b6000546001600160a01b0390811691161461349f576040805162461bcd60e51b815260206004820181905260248201527f4f776e61626c653a2063616c6c6572206973206e6f7420746865206f776e6572604482015290519081900360640190fd5b6001600160a01b03166000908152600160208190526040909120805460ff19169091179055565b600e8181548110611cea57fe5b6005546001600160a01b031681565b601c6020526000908152604090208054600282015460039092015490919083565b6001600160a01b039182166000908152601c602090815260408083209390941682526001909201909152205490565b3360009081526001602052604090205460ff168061355f575033613554612b23565b6001600160a01b0316145b61356857600080fd5b601855565b6008546001600160a01b031681565b60155481565b3360009081526001602052604090205460ff16806135af5750336135a4612b23565b6001600160a01b0316145b6135b857600080fd5b600354604080517ff2fde38b0000000000000000000000000000000000000000000000000000000081526001600160a01b0384811660048301529151919092169163f2fde38b91602480830192600092919082900301818387803b15801561361f57600080fd5b505af1158015613633573d6000803e3d6000fd5b5050505050565b613642613c3c565b6000546001600160a01b039081169116146136a4576040805162461bcd60e51b815260206004820181905260248201527f4f776e61626c653a2063616c6c6572206973206e6f7420746865206f776e6572604482015290519081900360640190fd5b6001600160a01b0381166136e95760405162461bcd60e51b81526004018080602001828103825260268152602001806140d86026913960400191505060405180910390fd5b600080546040516001600160a01b03808516939216917f8be0079c531659141344cd1fd0a4f28419497f9722a3daafe3b4186f6b6457e091a36000805473ffffffffffffffffffffffffffffffffffffffff19166001600160a01b0392909216919091179055565b3360009081526001602052604090205460ff168061377e575033613773612b23565b6001600160a01b0316145b61378757600080fd5b601655565b3360009081526001602052604090205460ff16806137b95750336137ae612b23565b6001600160a01b0316145b6137c257600080fd5b601255565b6000826137d657506000612c28565b828202828482816137e357fe5b04146138205760405162461bcd60e51b81526004018080602001828103825260218152602001806141486021913960400191505060405180910390fd5b9392505050565b600082820183811015613820576040805162461bcd60e51b815260206004820152601b60248201527f536166654d6174683a206164646974696f6e206f766572666c6f770000000000604482015290519081900360640190fd5b60006019828154811061389057fe5b60009182526020808320858452601b82526040808520338652909252922080546004909202909201925015613b335760006138ed82600101546130d564e8d4a51000611451876003015487600001546137c790919063ffffffff16565b600354604080516370a0823160e01b815230600482015290519293506000926001600160a01b03909216916370a0823191602480820192602092909190829003018186803b15801561393e57600080fd5b505afa158015613952573d6000803e3d6000fd5b505050506040513d602081101561396857600080fd5b5051905080821115613978578091505b8115613b1057600354604080517fa9059cbb0000000000000000000000000000000000000000000000000000000081523360048201526024810185905290516001600160a01b039092169163a9059cbb916044808201926020929091908290030181600087803b1580156139eb57600080fd5b505af11580156139ff573d6000803e3d6000fd5b505050506040513d6020811015613a1557600080fd5b5050601054600284015460009110613ac957613a416064611451601454866137c790919063ffffffff16565b600354604080517f282d3fdf0000000000000000000000000000000000000000000000000000000081523360048201526024810184905290519293506001600160a01b039091169163282d3fdf9160448082019260009290919082900301818387803b158015613ab057600080fd5b505af1158015613ac4573d6000803e3d6000fd5b505050505b43600285015560408051848152602081018390528151889233927f3887f2857beaaf367eb618dfb5e22c1ebd74425affb0602c2e9fe126e3f860eb929081900390910190a3505b60038401548354613b2b9164e8d4a5100091611451916137c7565b600184015550505b505050565b600061382083836040518060400160405280601e81526020017f536166654d6174683a207375627472616374696f6e206f766572666c6f770000815250613cce565b600061382083836040518060400160405280601a81526020017f536166654d6174683a206469766973696f6e206279207a65726f000000000000815250613d65565b604080516001600160a01b038416602482015260448082018490528251808303909101815260649091019091526020810180517bffffffffffffffffffffffffffffffffffffffffffffffffffffffff167fa9059cbb00000000000000000000000000000000000000000000000000000000179052613b33908490613dca565b3390565b604080516001600160a01b0380861660248301528416604482015260648082018490528251808303909101815260849091019091526020810180517bffffffffffffffffffffffffffffffffffffffffffffffffffffffff167f23b872dd00000000000000000000000000000000000000000000000000000000179052613cc8908590613dca565b50505050565b60008184841115613d5d5760405162461bcd60e51b81526004018080602001828103825283818151815260200191508051906020019080838360005b83811015613d22578181015183820152602001613d0a565b50505050905090810190601f168015613d4f5780820380516001836020036101000a031916815260200191505b509250505060405180910390fd5b505050900390565b60008183613db45760405162461bcd60e51b8152602060048201818152835160248401528351909283926044909101919085019080838360008315613d22578181015183820152602001613d0a565b506000838581613dc057fe5b0495945050505050565b6060613e1f826040518060400160405280602081526020017f5361666545524332303a206c6f772d6c6576656c2063616c6c206661696c6564815250856001600160a01b0316613e7b9092919063ffffffff16565b805190915015613b3357808060200190516020811015613e3e57600080fd5b5051613b335760405162461bcd60e51b815260040180806020018281038252602a8152602001806141c6602a913960400191505060405180910390fd5b6060613e8a8484600085613e92565b949350505050565b6060613e9d8561401d565b613eee576040805162461bcd60e51b815260206004820152601d60248201527f416464726573733a2063616c6c20746f206e6f6e2d636f6e7472616374000000604482015290519081900360640190fd5b60006060866001600160a01b031685876040518082805190602001908083835b60208310613f4b57805182527fffffffffffffffffffffffffffffffffffffffffffffffffffffffffffffffe09092019160209182019101613f0e565b6001836020036101000a03801982511681845116808217855250505050505090500191505060006040518083038185875af1925050503d8060008114613fad576040519150601f19603f3d011682016040523d82523d6000602084013e613fb2565b606091505b50915091508115613fc6579150613e8a9050565b805115613fd65780518082602001fd5b60405162461bcd60e51b8152602060048201818152865160248401528651879391928392604401919085019080838360008315613d22578181015183820152602001613d0a565b6000813f7fc5d2460186f7233c927e7db2dcc703c0e500b653ca82273b7bfad8045d85a470818114801590613e8a575050151592915050565b828054828255906000526020600020908101928215614091579160200282015b82811115614091578251825591602001919060010190614076565b5061409d9291506140c2565b5090565b60405180606001604052806000815260200160008152602001600081525090565b5b8082111561409d57600081556001016140c356fe4f776e61626c653a206e6577206f776e657220697320746865207a65726f20616464726573734d6173746572427265656465723a3a6164643a206c7020697320616c726561647920696e20706f6f6c4d6173746572427265656465723a3a77697468647261773a206e6f7420676f6f64536166654d6174683a206d756c7469706c69636174696f6e206f766572666c6f774d6173746572427265656465723a3a6e6f6e4475706c6963617465643a206475706c6963617465644d6173746572427265656465723a3a6465706f7369743a20616d6f756e74206d7573742062652067726561746572207468616e20305361666545524332303a204552433230206f7065726174696f6e20646964206e6f742073756363656564a26469706673582212205257eaaf300a127dbf39e22cb06ae73e6550da025a148a8a10ace384be4b95e664736f6c634300060c0033536166654d6174683a206d756c7469706c69636174696f6e206f766572666c6f77",
  "devdoc": {
    "kind": "dev",
    "methods": {
      "owner()": {
        "details": "Returns the address of the current owner."
      },
      "renounceOwnership()": {
        "details": "Leaves the contract without owner. It will not be possible to call `onlyOwner` functions anymore. Can only be called by the current owner. NOTE: Renouncing ownership will leave the contract without an owner, thereby removing any functionality that is only available to the owner."
      },
      "transferOwnership(address)": {
        "details": "Transfers ownership of the contract to a new account (`newOwner`). Can only be called by the current owner."
      }
    },
    "version": 1
  },
  "userdoc": {
    "kind": "user",
    "methods": {},
    "version": 1
  },
  "storageLayout": {
    "storage": [
      {
        "astId": 30,
        "contract": "src/MasterBreeder.sol:MasterBreeder",
        "label": "_owner",
        "offset": 0,
        "slot": "0",
        "type": "t_address"
      },
      {
        "astId": 4164,
        "contract": "src/MasterBreeder.sol:MasterBreeder",
        "label": "authorized",
        "offset": 0,
        "slot": "1",
        "type": "t_mapping(t_address,t_bool)"
      },
      {
        "astId": 1735,
        "contract": "src/MasterBreeder.sol:MasterBreeder",
        "label": "_status",
        "offset": 0,
        "slot": "2",
        "type": "t_uint256"
      },
      {
        "astId": 6016,
        "contract": "src/MasterBreeder.sol:MasterBreeder",
        "label": "govToken",
        "offset": 0,
        "slot": "3",
        "type": "t_contract(GovernanceToken)5440"
      },
      {
        "astId": 6018,
        "contract": "src/MasterBreeder.sol:MasterBreeder",
        "label": "usdOracle",
        "offset": 0,
        "slot": "4",
        "type": "t_address"
      },
      {
        "astId": 6020,
        "contract": "src/MasterBreeder.sol:MasterBreeder",
        "label": "devaddr",
        "offset": 0,
        "slot": "5",
        "type": "t_address"
      },
      {
        "astId": 6022,
        "contract": "src/MasterBreeder.sol:MasterBreeder",
        "label": "liquidityaddr",
        "offset": 0,
        "slot": "6",
        "type": "t_address"
      },
      {
        "astId": 6024,
        "contract": "src/MasterBreeder.sol:MasterBreeder",
        "label": "comfundaddr",
        "offset": 0,
        "slot": "7",
        "type": "t_address"
      },
      {
        "astId": 6026,
        "contract": "src/MasterBreeder.sol:MasterBreeder",
        "label": "founderaddr",
        "offset": 0,
        "slot": "8",
        "type": "t_address"
      },
      {
        "astId": 6028,
        "contract": "src/MasterBreeder.sol:MasterBreeder",
        "label": "REWARD_PER_BLOCK",
        "offset": 0,
        "slot": "9",
        "type": "t_uint256"
      },
      {
        "astId": 6031,
        "contract": "src/MasterBreeder.sol:MasterBreeder",
        "label": "REWARD_MULTIPLIER",
        "offset": 0,
        "slot": "10",
        "type": "t_array(t_uint256)dyn_storage"
      },
      {
        "astId": 6034,
        "contract": "src/MasterBreeder.sol:MasterBreeder",
        "label": "HALVING_AT_BLOCK",
        "offset": 0,
        "slot": "11",
        "type": "t_array(t_uint256)dyn_storage"
      },
      {
        "astId": 6037,
        "contract": "src/MasterBreeder.sol:MasterBreeder",
        "label": "blockDeltaStartStage",
        "offset": 0,
        "slot": "12",
        "type": "t_array(t_uint256)dyn_storage"
      },
      {
        "astId": 6040,
        "contract": "src/MasterBreeder.sol:MasterBreeder",
        "label": "blockDeltaEndStage",
        "offset": 0,
        "slot": "13",
        "type": "t_array(t_uint256)dyn_storage"
      },
      {
        "astId": 6043,
        "contract": "src/MasterBreeder.sol:MasterBreeder",
        "label": "userFeeStage",
        "offset": 0,
        "slot": "14",
        "type": "t_array(t_uint256)dyn_storage"
      },
      {
        "astId": 6046,
        "contract": "src/MasterBreeder.sol:MasterBreeder",
        "label": "devFeeStage",
        "offset": 0,
        "slot": "15",
        "type": "t_array(t_uint256)dyn_storage"
      },
      {
        "astId": 6048,
        "contract": "src/MasterBreeder.sol:MasterBreeder",
        "label": "FINISH_BONUS_AT_BLOCK",
        "offset": 0,
        "slot": "16",
        "type": "t_uint256"
      },
      {
        "astId": 6050,
        "contract": "src/MasterBreeder.sol:MasterBreeder",
        "label": "userDepFee",
        "offset": 0,
        "slot": "17",
        "type": "t_uint256"
      },
      {
        "astId": 6052,
        "contract": "src/MasterBreeder.sol:MasterBreeder",
        "label": "devDepFee",
        "offset": 0,
        "slot": "18",
        "type": "t_uint256"
      },
      {
        "astId": 6054,
        "contract": "src/MasterBreeder.sol:MasterBreeder",
        "label": "START_BLOCK",
        "offset": 0,
        "slot": "19",
        "type": "t_uint256"
      },
      {
        "astId": 6056,
        "contract": "src/MasterBreeder.sol:MasterBreeder",
        "label": "PERCENT_LOCK_BONUS_REWARD",
        "offset": 0,
        "slot": "20",
        "type": "t_uint256"
      },
      {
        "astId": 6058,
        "contract": "src/MasterBreeder.sol:MasterBreeder",
        "label": "PERCENT_FOR_DEV",
        "offset": 0,
        "slot": "21",
        "type": "t_uint256"
      },
      {
        "astId": 6060,
        "contract": "src/MasterBreeder.sol:MasterBreeder",
        "label": "PERCENT_FOR_LP",
        "offset": 0,
        "slot": "22",
        "type": "t_uint256"
      },
      {
        "astId": 6062,
        "contract": "src/MasterBreeder.sol:MasterBreeder",
        "label": "PERCENT_FOR_COM",
        "offset": 0,
        "slot": "23",
        "type": "t_uint256"
      },
      {
        "astId": 6064,
        "contract": "src/MasterBreeder.sol:MasterBreeder",
        "label": "PERCENT_FOR_FOUNDERS",
        "offset": 0,
        "slot": "24",
        "type": "t_uint256"
      },
      {
        "astId": 6067,
        "contract": "src/MasterBreeder.sol:MasterBreeder",
        "label": "poolInfo",
        "offset": 0,
        "slot": "25",
        "type": "t_array(t_struct(PoolInfo)6014_storage)dyn_storage"
      },
      {
        "astId": 6071,
        "contract": "src/MasterBreeder.sol:MasterBreeder",
        "label": "poolId1",
        "offset": 0,
        "slot": "26",
        "type": "t_mapping(t_address,t_uint256)"
      },
      {
        "astId": 6077,
        "contract": "src/MasterBreeder.sol:MasterBreeder",
        "label": "userInfo",
        "offset": 0,
        "slot": "27",
        "type": "t_mapping(t_uint256,t_mapping(t_address,t_struct(UserInfo)5994_storage))"
      },
      {
        "astId": 6081,
        "contract": "src/MasterBreeder.sol:MasterBreeder",
        "label": "userGlobalInfo",
        "offset": 0,
        "slot": "28",
        "type": "t_mapping(t_address,t_struct(UserGlobalInfo)6005_storage)"
      },
      {
        "astId": 6085,
        "contract": "src/MasterBreeder.sol:MasterBreeder",
        "label": "poolExistence",
        "offset": 0,
        "slot": "29",
        "type": "t_mapping(t_contract(IERC20)912,t_bool)"
      },
      {
        "astId": 6088,
        "contract": "src/MasterBreeder.sol:MasterBreeder",
        "label": "totalAllocPoint",
        "offset": 0,
        "slot": "30",
        "type": "t_uint256"
      }
    ],
    "types": {
      "t_address": {
        "encoding": "inplace",
        "label": "address",
        "numberOfBytes": "20"
      },
      "t_array(t_struct(PoolInfo)6014_storage)dyn_storage": {
        "base": "t_struct(PoolInfo)6014_storage",
        "encoding": "dynamic_array",
        "label": "struct MasterBreeder.PoolInfo[]",
        "numberOfBytes": "32"
      },
      "t_array(t_uint256)dyn_storage": {
        "base": "t_uint256",
        "encoding": "dynamic_array",
        "label": "uint256[]",
        "numberOfBytes": "32"
      },
      "t_bool": {
        "encoding": "inplace",
        "label": "bool",
        "numberOfBytes": "1"
      },
      "t_contract(GovernanceToken)5440": {
        "encoding": "inplace",
        "label": "contract GovernanceToken",
        "numberOfBytes": "20"
      },
      "t_contract(IERC20)912": {
        "encoding": "inplace",
        "label": "contract IERC20",
        "numberOfBytes": "20"
      },
      "t_mapping(t_address,t_bool)": {
        "encoding": "mapping",
        "key": "t_address",
        "label": "mapping(address => bool)",
        "numberOfBytes": "32",
        "value": "t_bool"
      },
      "t_mapping(t_address,t_struct(UserGlobalInfo)6005_storage)": {
        "encoding": "mapping",
        "key": "t_address",
        "label": "mapping(address => struct MasterBreeder.UserGlobalInfo)",
        "numberOfBytes": "32",
        "value": "t_struct(UserGlobalInfo)6005_storage"
      },
      "t_mapping(t_address,t_struct(UserInfo)5994_storage)": {
        "encoding": "mapping",
        "key": "t_address",
        "label": "mapping(address => struct MasterBreeder.UserInfo)",
        "numberOfBytes": "32",
        "value": "t_struct(UserInfo)5994_storage"
      },
      "t_mapping(t_address,t_uint256)": {
        "encoding": "mapping",
        "key": "t_address",
        "label": "mapping(address => uint256)",
        "numberOfBytes": "32",
        "value": "t_uint256"
      },
      "t_mapping(t_contract(IERC20)912,t_bool)": {
        "encoding": "mapping",
        "key": "t_contract(IERC20)912",
        "label": "mapping(contract IERC20 => bool)",
        "numberOfBytes": "32",
        "value": "t_bool"
      },
      "t_mapping(t_uint256,t_mapping(t_address,t_struct(UserInfo)5994_storage))": {
        "encoding": "mapping",
        "key": "t_uint256",
        "label": "mapping(uint256 => mapping(address => struct MasterBreeder.UserInfo))",
        "numberOfBytes": "32",
        "value": "t_mapping(t_address,t_struct(UserInfo)5994_storage)"
      },
      "t_struct(PoolInfo)6014_storage": {
        "encoding": "inplace",
        "label": "struct MasterBreeder.PoolInfo",
        "members": [
          {
            "astId": 6007,
            "contract": "src/MasterBreeder.sol:MasterBreeder",
            "label": "lpToken",
            "offset": 0,
            "slot": "0",
            "type": "t_contract(IERC20)912"
          },
          {
            "astId": 6009,
            "contract": "src/MasterBreeder.sol:MasterBreeder",
            "label": "allocPoint",
            "offset": 0,
            "slot": "1",
            "type": "t_uint256"
          },
          {
            "astId": 6011,
            "contract": "src/MasterBreeder.sol:MasterBreeder",
            "label": "lastRewardBlock",
            "offset": 0,
            "slot": "2",
            "type": "t_uint256"
          },
          {
            "astId": 6013,
            "contract": "src/MasterBreeder.sol:MasterBreeder",
            "label": "accGovTokenPerShare",
            "offset": 0,
            "slot": "3",
            "type": "t_uint256"
          }
        ],
        "numberOfBytes": "128"
      },
      "t_struct(UserGlobalInfo)6005_storage": {
        "encoding": "inplace",
        "label": "struct MasterBreeder.UserGlobalInfo",
        "members": [
          {
            "astId": 5996,
            "contract": "src/MasterBreeder.sol:MasterBreeder",
            "label": "globalAmount",
            "offset": 0,
            "slot": "0",
            "type": "t_uint256"
          },
          {
            "astId": 6000,
            "contract": "src/MasterBreeder.sol:MasterBreeder",
            "label": "referrals",
            "offset": 0,
            "slot": "1",
            "type": "t_mapping(t_address,t_uint256)"
          },
          {
            "astId": 6002,
            "contract": "src/MasterBreeder.sol:MasterBreeder",
            "label": "totalReferals",
            "offset": 0,
            "slot": "2",
            "type": "t_uint256"
          },
          {
            "astId": 6004,
            "contract": "src/MasterBreeder.sol:MasterBreeder",
            "label": "globalRefAmount",
            "offset": 0,
            "slot": "3",
            "type": "t_uint256"
          }
        ],
        "numberOfBytes": "128"
      },
      "t_struct(UserInfo)5994_storage": {
        "encoding": "inplace",
        "label": "struct MasterBreeder.UserInfo",
        "members": [
          {
            "astId": 5981,
            "contract": "src/MasterBreeder.sol:MasterBreeder",
            "label": "amount",
            "offset": 0,
            "slot": "0",
            "type": "t_uint256"
          },
          {
            "astId": 5983,
            "contract": "src/MasterBreeder.sol:MasterBreeder",
            "label": "rewardDebt",
            "offset": 0,
            "slot": "1",
            "type": "t_uint256"
          },
          {
            "astId": 5985,
            "contract": "src/MasterBreeder.sol:MasterBreeder",
            "label": "rewardDebtAtBlock",
            "offset": 0,
            "slot": "2",
            "type": "t_uint256"
          },
          {
            "astId": 5987,
            "contract": "src/MasterBreeder.sol:MasterBreeder",
            "label": "lastWithdrawBlock",
            "offset": 0,
            "slot": "3",
            "type": "t_uint256"
          },
          {
            "astId": 5989,
            "contract": "src/MasterBreeder.sol:MasterBreeder",
            "label": "firstDepositBlock",
            "offset": 0,
            "slot": "4",
            "type": "t_uint256"
          },
          {
            "astId": 5991,
            "contract": "src/MasterBreeder.sol:MasterBreeder",
            "label": "blockdelta",
            "offset": 0,
            "slot": "5",
            "type": "t_uint256"
          },
          {
            "astId": 5993,
            "contract": "src/MasterBreeder.sol:MasterBreeder",
            "label": "lastDepositBlock",
            "offset": 0,
            "slot": "6",
            "type": "t_uint256"
          }
        ],
        "numberOfBytes": "224"
      },
      "t_uint256": {
        "encoding": "inplace",
        "label": "uint256",
        "numberOfBytes": "32"
      }
    }
  }
}