{
  "address": "0xd842Aae7ed615A4ee936d716Cf0F30aD7cB88849",
  "abi": [
    {
      "inputs": [
        {
          "internalType": "address",
          "name": "_factory",
          "type": "address"
        },
        {
          "internalType": "address",
          "name": "_pit",
          "type": "address"
        },
        {
          "internalType": "address",
          "name": "_govToken",
          "type": "address"
        },
        {
          "internalType": "address",
          "name": "_weth",
          "type": "address"
        }
      ],
      "stateMutability": "nonpayable",
      "type": "constructor"
    },
    {
      "anonymous": false,
      "inputs": [
        {
          "indexed": true,
          "internalType": "address",
          "name": "token",
          "type": "address"
        },
        {
          "indexed": true,
          "internalType": "address",
          "name": "bridge",
          "type": "address"
        }
      ],
      "name": "LogBridgeSet",
      "type": "event"
    },
    {
      "anonymous": false,
      "inputs": [
        {
          "indexed": true,
          "internalType": "address",
          "name": "server",
          "type": "address"
        },
        {
          "indexed": true,
          "internalType": "address",
          "name": "token0",
          "type": "address"
        },
        {
          "indexed": true,
          "internalType": "address",
          "name": "token1",
          "type": "address"
        },
        {
          "indexed": false,
          "internalType": "uint256",
          "name": "amount0",
          "type": "uint256"
        },
        {
          "indexed": false,
          "internalType": "uint256",
          "name": "amount1",
          "type": "uint256"
        },
        {
          "indexed": false,
          "internalType": "uint256",
          "name": "amountGovToken",
          "type": "uint256"
        }
      ],
      "name": "LogConvert",
      "type": "event"
    },
    {
      "anonymous": false,
      "inputs": [
        {
          "indexed": true,
          "internalType": "address",
          "name": "previousOwner",
          "type": "address"
        },
        {
          "indexed": true,
          "internalType": "address",
          "name": "newOwner",
          "type": "address"
        }
      ],
      "name": "OwnershipTransferred",
      "type": "event"
    },
    {
      "inputs": [
        {
          "internalType": "address",
          "name": "token",
          "type": "address"
        }
      ],
      "name": "bridgeFor",
      "outputs": [
        {
          "internalType": "address",
          "name": "bridge",
          "type": "address"
        }
      ],
      "stateMutability": "view",
      "type": "function"
    },
    {
      "inputs": [
        {
          "internalType": "address",
          "name": "token0",
          "type": "address"
        },
        {
          "internalType": "address",
          "name": "token1",
          "type": "address"
        }
      ],
      "name": "convert",
      "outputs": [],
      "stateMutability": "nonpayable",
      "type": "function"
    },
    {
      "inputs": [
        {
          "internalType": "address[]",
          "name": "token0",
          "type": "address[]"
        },
        {
          "internalType": "address[]",
          "name": "token1",
          "type": "address[]"
        }
      ],
      "name": "convertMultiple",
      "outputs": [],
      "stateMutability": "nonpayable",
      "type": "function"
    },
    {
      "inputs": [],
      "name": "factory",
      "outputs": [
        {
          "internalType": "contract IUniswapV2Factory",
          "name": "",
          "type": "address"
        }
      ],
      "stateMutability": "view",
      "type": "function"
    },
    {
      "inputs": [],
      "name": "owner",
      "outputs": [
        {
          "internalType": "address",
          "name": "",
          "type": "address"
        }
      ],
      "stateMutability": "view",
      "type": "function"
    },
    {
      "inputs": [],
      "name": "pit",
      "outputs": [
        {
          "internalType": "address",
          "name": "",
          "type": "address"
        }
      ],
      "stateMutability": "view",
      "type": "function"
    },
    {
      "inputs": [],
      "name": "renounceOwnership",
      "outputs": [],
      "stateMutability": "nonpayable",
      "type": "function"
    },
    {
      "inputs": [
        {
          "internalType": "address",
          "name": "token",
          "type": "address"
        },
        {
          "internalType": "address",
          "name": "bridge",
          "type": "address"
        }
      ],
      "name": "setBridge",
      "outputs": [],
      "stateMutability": "nonpayable",
      "type": "function"
    },
    {
      "inputs": [
        {
          "internalType": "address",
          "name": "newOwner",
          "type": "address"
        }
      ],
      "name": "transferOwnership",
      "outputs": [],
      "stateMutability": "nonpayable",
      "type": "function"
    }
  ],
  "transactionHash": "0x02062a78c069fa3807092a5e415326657dc780859b589d9dc1644feb8d00a331",
  "args": [
    "0xDd749813a4561100bDD3F50079a07110d148EaF5",
    "0x46269c22848738573761eC50a736916272857f83",
    "0x47c259DFe165Cef3e429C9B66bf9ce9dc3e68aC2",
    "0x3743eC0673453E5009310C727Ba4eaF7b3a1cc04"
  ],
  "solcInputHash": "e58e1e11596eefd456da8008e62e218f",
  "bytecode": "0x61010060405234801561001157600080fd5b50604051611a47380380611a478339818101604052608081101561003457600080fd5b508051602082015160408301516060909301519192909160006100556100ce565b600080546001600160a01b0319166001600160a01b0383169081178255604051929350917f8be0079c531659141344cd1fd0a4f28419497f9722a3daafe3b4186f6b6457e0908290a3506001600160601b0319606094851b811660805292841b831660a05290831b821660c05290911b1660e0526100d2565b3390565b60805160601c60a05160601c60c05160601c60e05160601c6118c66101816000398061047952806105a45280610bec5280610c295280610dce5280610e0b5280610e345280610e615280610e9e5280610ec752508061043c5280610b565280610b9b5280610c895280610cce5280610d325280610d7752806110b75250806106515280610bbd5280610cf05280610d9952806110d952508061062d528061078e528061110952506118c66000f3fe608060405234801561001057600080fd5b50600436106100a35760003560e01c8063a761a93911610076578063c45a01551161005b578063c45a01551461021a578063f03c7c6e14610222578063f2fde38b1461022a576100a3565b8063a761a939146101c6578063bd1b820c146101ec576100a3565b8063303e6aa4146100a8578063715018a61461016c5780638da5cb5b146101745780639d22ae8c14610198575b600080fd5b61016a600480360360408110156100be57600080fd5b8101906020810181356401000000008111156100d957600080fd5b8201836020820111156100eb57600080fd5b8035906020019184602083028401116401000000008311171561010d57600080fd5b91939092909160208101903564010000000081111561012b57600080fd5b82018360208201111561013d57600080fd5b8035906020019184602083028401116401000000008311171561015f57600080fd5b509092509050610250565b005b61016a610300565b61017c6103c1565b604080516001600160a01b039092168252519081900360200190f35b61016a600480360360408110156101ae57600080fd5b506001600160a01b03813581169160200135166103d0565b61017c600480360360208110156101dc57600080fd5b50356001600160a01b0316610581565b61016a6004803603604081101561020257600080fd5b506001600160a01b03813581169160200135166105c9565b61017c61062b565b61017c61064f565b61016a6004803603602081101561024057600080fd5b50356001600160a01b0316610673565b3332146102a4576040805162461bcd60e51b815260206004820152601860248201527f506974427265656465723a206d7573742075736520454f410000000000000000604482015290519081900360640190fd5b8260005b818110156102f8576102f08686838181106102bf57fe5b905060200201356001600160a01b03168585848181106102db57fe5b905060200201356001600160a01b031661078a565b6001016102a8565b505050505050565b610308610aa1565b6000546001600160a01b0390811691161461036a576040805162461bcd60e51b815260206004820181905260248201527f4f776e61626c653a2063616c6c6572206973206e6f7420746865206f776e6572604482015290519081900360640190fd5b600080546040516001600160a01b03909116907f8be0079c531659141344cd1fd0a4f28419497f9722a3daafe3b4186f6b6457e0908390a36000805473ffffffffffffffffffffffffffffffffffffffff19169055565b6000546001600160a01b031690565b6103d8610aa1565b6000546001600160a01b0390811691161461043a576040805162461bcd60e51b815260206004820181905260248201527f4f776e61626c653a2063616c6c6572206973206e6f7420746865206f776e6572604482015290519081900360640190fd5b7f00000000000000000000000000000000000000000000000000000000000000006001600160a01b0316826001600160a01b0316141580156104ae57507f00000000000000000000000000000000000000000000000000000000000000006001600160a01b0316826001600160a01b031614155b80156104cc5750806001600160a01b0316826001600160a01b031614155b61051d576040805162461bcd60e51b815260206004820152601a60248201527f506974427265656465723a20496e76616c696420627269646765000000000000604482015290519081900360640190fd5b6001600160a01b03828116600081815260016020526040808220805473ffffffffffffffffffffffffffffffffffffffff19169486169485179055517f2e103aa707acc565f9a1547341914802b2bfe977fd79c595209f248ae4b006139190a35050565b6001600160a01b0380821660009081526001602052604090205416806105c457507f00000000000000000000000000000000000000000000000000000000000000005b919050565b33321461061d576040805162461bcd60e51b815260206004820152601860248201527f506974427265656465723a206d7573742075736520454f410000000000000000604482015290519081900360640190fd5b610627828261078a565b5050565b7f000000000000000000000000000000000000000000000000000000000000000081565b7f000000000000000000000000000000000000000000000000000000000000000081565b61067b610aa1565b6000546001600160a01b039081169116146106dd576040805162461bcd60e51b815260206004820181905260248201527f4f776e61626c653a2063616c6c6572206973206e6f7420746865206f776e6572604482015290519081900360640190fd5b6001600160a01b0381166107225760405162461bcd60e51b81526004018080602001828103825260268152602001806118206026913960400191505060405180910390fd5b600080546040516001600160a01b03808516939216917f8be0079c531659141344cd1fd0a4f28419497f9722a3daafe3b4186f6b6457e091a36000805473ffffffffffffffffffffffffffffffffffffffff19166001600160a01b0392909216919091179055565b60007f00000000000000000000000000000000000000000000000000000000000000006001600160a01b031663e6a4390584846040518363ffffffff1660e01b815260040180836001600160a01b03168152602001826001600160a01b031681526020019250505060206040518083038186803b15801561080a57600080fd5b505afa15801561081e573d6000803e3d6000fd5b505050506040513d602081101561083457600080fd5b505190506001600160a01b038116610893576040805162461bcd60e51b815260206004820152601860248201527f506974427265656465723a20496e76616c696420706169720000000000000000604482015290519081900360640190fd5b61092181826001600160a01b03166370a08231306040518263ffffffff1660e01b815260040180826001600160a01b0316815260200191505060206040518083038186803b1580156108e457600080fd5b505afa1580156108f8573d6000803e3d6000fd5b505050506040513d602081101561090e57600080fd5b50516001600160a01b0384169190610aa5565b600080826001600160a01b03166389afcb44306040518263ffffffff1660e01b815260040180826001600160a01b031681526020019150506040805180830381600087803b15801561097257600080fd5b505af1158015610986573d6000803e3d6000fd5b505050506040513d604081101561099c57600080fd5b508051602091820151604080517f0dfe168100000000000000000000000000000000000000000000000000000000815290519295509093506001600160a01b03861692630dfe168192600480840193829003018186803b1580156109ff57600080fd5b505afa158015610a13573d6000803e3d6000fd5b505050506040513d6020811015610a2957600080fd5b50516001600160a01b03868116911614610a3f57905b6001600160a01b03808516908616337fd06b1d7ed79b664d17472c6f6997b929f1abe463ccccb4e5b6a0038f2f730c158585610a7d8b8b8484610b2a565b60408051938452602084019290925282820152519081900360600190a45050505050565b3390565b604080516001600160a01b038416602482015260448082018490528251808303909101815260649091019091526020810180517bffffffffffffffffffffffffffffffffffffffffffffffffffffffff167fa9059cbb00000000000000000000000000000000000000000000000000000000179052610b25908490610f9b565b505050565b6000836001600160a01b0316856001600160a01b03161415610c87576000610b52848461104c565b90507f00000000000000000000000000000000000000000000000000000000000000006001600160a01b0316866001600160a01b03161415610bea57610be26001600160a01b037f0000000000000000000000000000000000000000000000000000000000000000167f000000000000000000000000000000000000000000000000000000000000000083610aa5565b809150610c81565b7f00000000000000000000000000000000000000000000000000000000000000006001600160a01b0316866001600160a01b03161415610c5557610c4e7f0000000000000000000000000000000000000000000000000000000000000000826110af565b9150610c81565b6000610c6087610581565b9050610c6e87828430611104565b9150610c7d8182846000610b2a565b9250505b50610f93565b7f00000000000000000000000000000000000000000000000000000000000000006001600160a01b0316856001600160a01b03161415610d3057610d156001600160a01b037f0000000000000000000000000000000000000000000000000000000000000000167f000000000000000000000000000000000000000000000000000000000000000085610aa5565b610d2983610d2386856110af565b9061104c565b9050610f93565b7f00000000000000000000000000000000000000000000000000000000000000006001600160a01b0316846001600160a01b03161415610dcc57610dbe6001600160a01b037f0000000000000000000000000000000000000000000000000000000000000000167f000000000000000000000000000000000000000000000000000000000000000084610aa5565b610d2982610d2387866110af565b7f00000000000000000000000000000000000000000000000000000000000000006001600160a01b0316856001600160a01b03161415610e5f57610d297f0000000000000000000000000000000000000000000000000000000000000000610e5a85610d23887f00000000000000000000000000000000000000000000000000000000000000008830611104565b6110af565b7f00000000000000000000000000000000000000000000000000000000000000006001600160a01b0316846001600160a01b03161415610eed57610d297f0000000000000000000000000000000000000000000000000000000000000000610e5a84610d23897f00000000000000000000000000000000000000000000000000000000000000008930611104565b6000610ef886610581565b90506000610f0586610581565b9050856001600160a01b0316826001600160a01b03161415610f3f57610f388287610f328a868a30611104565b87610b2a565b9250610f90565b866001600160a01b0316816001600160a01b03161415610f7057610f38878287610f6b8a868a30611104565b610b2a565b610f8d8282610f818a868a30611104565b610f6b8a868a30611104565b92505b50505b949350505050565b6060610ff0826040518060400160405280602081526020017f5361666545524332303a206c6f772d6c6576656c2063616c6c206661696c6564815250856001600160a01b03166115b59092919063ffffffff16565b805190915015610b255780806020019051602081101561100f57600080fd5b5051610b255760405162461bcd60e51b815260040180806020018281038252602a815260200180611867602a913960400191505060405180910390fd5b6000828201838110156110a6576040805162461bcd60e51b815260206004820152601b60248201527f536166654d6174683a206164646974696f6e206f766572666c6f770000000000604482015290519081900360640190fd5b90505b92915050565b60006110fd837f0000000000000000000000000000000000000000000000000000000000000000847f0000000000000000000000000000000000000000000000000000000000000000611104565b9392505050565b6000807f00000000000000000000000000000000000000000000000000000000000000006001600160a01b031663e6a4390587876040518363ffffffff1660e01b815260040180836001600160a01b03168152602001826001600160a01b031681526020019250505060206040518083038186803b15801561118557600080fd5b505afa158015611199573d6000803e3d6000fd5b505050506040513d60208110156111af57600080fd5b505190506001600160a01b03811661120e576040805162461bcd60e51b815260206004820152601a60248201527f506974427265656465723a2043616e6e6f7420636f6e76657274000000000000604482015290519081900360640190fd5b600080826001600160a01b0316630902f1ac6040518163ffffffff1660e01b815260040160606040518083038186803b15801561124a57600080fd5b505afa15801561125e573d6000803e3d6000fd5b505050506040513d606081101561127457600080fd5b5080516020909101516dffffffffffffffffffffffffffff918216935016905060006112a2876103e56115c4565b9050836001600160a01b0316630dfe16816040518163ffffffff1660e01b815260040160206040518083038186803b1580156112dd57600080fd5b505afa1580156112f1573d6000803e3d6000fd5b505050506040513d602081101561130757600080fd5b50516001600160a01b038a8116911614156114675761132c81610d23856103e86115c4565b6113428361133c8a6103e56115c4565b906115c4565b8161134957fe5b0494506113606001600160a01b038a168589610aa5565b60408051600080825260208201928390527f022c0d9f00000000000000000000000000000000000000000000000000000000835260248201818152604483018990526001600160a01b038a81166064850152608060848501908152845160a48601819052918a169563022c0d9f958c948e9491939092909160c4850191908083838b5b838110156113fb5781810151838201526020016113e3565b50505050905090810190601f1680156114285780820380516001836020036101000a031916815260200191505b5095505050505050600060405180830381600087803b15801561144a57600080fd5b505af115801561145e573d6000803e3d6000fd5b505050506115a9565b61147781610d23846103e86115c4565b6114878461133c8a6103e56115c4565b8161148e57fe5b0494506114a56001600160a01b038a168589610aa5565b60408051600080825260208201928390527f022c0d9f00000000000000000000000000000000000000000000000000000000835260248201888152604483018290526001600160a01b038a81166064850152608060848501908152845160a48601819052918a169563022c0d9f958c95948e9491939092909160c4850191908083838a5b83811015611541578181015183820152602001611529565b50505050905090810190601f16801561156e5780820380516001836020036101000a031916815260200191505b5095505050505050600060405180830381600087803b15801561159057600080fd5b505af11580156115a4573d6000803e3d6000fd5b505050505b50505050949350505050565b6060610f93848460008561161d565b6000826115d3575060006110a9565b828202828482816115e057fe5b04146110a65760405162461bcd60e51b81526004018080602001828103825260218152602001806118466021913960400191505060405180910390fd5b6060611628856117e6565b611679576040805162461bcd60e51b815260206004820152601d60248201527f416464726573733a2063616c6c20746f206e6f6e2d636f6e7472616374000000604482015290519081900360640190fd5b60006060866001600160a01b031685876040518082805190602001908083835b602083106116d657805182527fffffffffffffffffffffffffffffffffffffffffffffffffffffffffffffffe09092019160209182019101611699565b6001836020036101000a03801982511681845116808217855250505050505090500191505060006040518083038185875af1925050503d8060008114611738576040519150601f19603f3d011682016040523d82523d6000602084013e61173d565b606091505b50915091508115611751579150610f939050565b8051156117615780518082602001fd5b8360405162461bcd60e51b81526004018080602001828103825283818151815260200191508051906020019080838360005b838110156117ab578181015183820152602001611793565b50505050905090810190601f1680156117d85780820380516001836020036101000a031916815260200191505b509250505060405180910390fd5b6000813f7fc5d2460186f7233c927e7db2dcc703c0e500b653ca82273b7bfad8045d85a470818114801590610f9357505015159291505056fe4f776e61626c653a206e6577206f776e657220697320746865207a65726f2061646472657373536166654d6174683a206d756c7469706c69636174696f6e206f766572666c6f775361666545524332303a204552433230206f7065726174696f6e20646964206e6f742073756363656564a2646970667358221220ff2ee14d47c4f6a233e5c5a17186f2050b72661630be0d6b45d71dadf7cc4fbd64736f6c634300060c0033",
  "devdoc": {
    "kind": "dev",
    "methods": {
      "owner()": {
        "details": "Returns the address of the current owner."
      },
      "renounceOwnership()": {
        "details": "Leaves the contract without owner. It will not be possible to call `onlyOwner` functions anymore. Can only be called by the current owner. NOTE: Renouncing ownership will leave the contract without an owner, thereby removing any functionality that is only available to the owner."
      },
      "transferOwnership(address)": {
        "details": "Transfers ownership of the contract to a new account (`newOwner`). Can only be called by the current owner."
      }
    },
    "version": 1
  },
  "userdoc": {
    "kind": "user",
    "methods": {},
    "version": 1
  },
  "storageLayout": {
    "storage": [
      {
        "astId": 30,
        "contract": "src/PitBreeder.sol:PitBreeder",
        "label": "_owner",
        "offset": 0,
        "slot": "0",
        "type": "t_address"
      },
      {
        "astId": 8833,
        "contract": "src/PitBreeder.sol:PitBreeder",
        "label": "_bridges",
        "offset": 0,
        "slot": "1",
        "type": "t_mapping(t_address,t_address)"
      }
    ],
    "types": {
      "t_address": {
        "encoding": "inplace",
        "label": "address",
        "numberOfBytes": "20"
      },
      "t_mapping(t_address,t_address)": {
        "encoding": "mapping",
        "key": "t_address",
        "label": "mapping(address => address)",
        "numberOfBytes": "32",
        "value": "t_address"
      }
    }
  }
}